:100000000C94AE000C94D6000C94D6000C94D60040
:100010000C94D6000C94D6000C94D6000C94D60008
:100020000C94D6000C94D6000C9466060C94D5065D
:100030000C94D6000C94D6000C94D6000C94D600E8
:100040000C94D6000C94D6000C94D6000C94D600D8
:100050000C94D6000C94D6000C94D6000C941C067C
:100060000C94D6000C94D6000C94D6000C94D600B8
:100070000C94D6000C94D6000C94D6000C94D600A8
:100080000C94D6000C94D6000C94D6000C94D60098
:100090000C94D6000C94D6000C94D6000C94D60088
:1000A0000C94D6000C94D6000C94D600080B0002D9
:1000B0000202000009040000010202000005240001
:1000C0001001052401010104240206052406000193
:1000D0000705810310004009040100020A00000026
:1000E00007050202400000070583024000000403E8
:1000F000090412010002EF02014054354FF50001DE
:1001000001020301556E6B6E6F776E00322E34471D
:1001100020576972656C65737320526563656976F3
:1001200065720005010902A1010901A1008501050F
:10013000091901290515002501950575018102950B
:10014000017503810305010930093109381581253D
:100150007F750895038106C0C000070911241FBEE2
:10016000CFEFDAE0DEBFCDBF21E0A8E3B1E001C010
:100170001D92A33DB207E1F711E0A0E0B1E0E4EF8A
:10018000FAE102C005900D92A833B107D9F710E04B
:10019000CEEAD0E004C02197FE010E94800BCD3A48
:1001A000D107C9F70E9491090C94780D0C940000B6
:1001B000CF93DF93FC0181819091AB01482F490FD0
:1001C0005527551F483051059CF5A281B3811097E2
:1001D00009F527EA31E03383228320812093A901A6
:1001E0008093AA018091AC01820F80832091AD01A0
:1001F000A22FB091AE018A2F821B8917E8F481816A
:100200003D91C82FD0E0C45FDE4F38838F5F81837C
:10021000F2CFD90118962D913C91199721153105EE
:10022000C1F727EA31E019963C932E931897D5CF62
:1002300080E0DF91CF91089581E0FBCFFC018091B8
:100240005201882311F13FB7F89482E08093E900CE
:100250002091F200822F90E01816190614F481E024
:1002600090E0882339F0289844E64093510140916A
:10027000F1004083222339F02091F200211103C0C4
:100280002BE62093E8003FBF08958FEF9FEF08957E
:100290003FB7F89480914D0190914E01A0914F018C
:1002A000B091500126B5A89B05C02F3F19F00196CB
:1002B000A11DB11D3FBFBA2FA92F982F8827BC01C0
:1002C000CD01620F711D811D911D42E0660F771FE8
:1002D000881F991F4A95D1F70895CF92DF92EF9228
:1002E000FF920E9448016B017C010E9448016C1939
:1002F0007D098E099F09683E734081059105A8F329
:10030000FF90EF90DF90CF9008954091460150917B
:100310004701209144013091450142175307B4F43D
:100320009091E8009570E1F39091E80092FD19C07A
:100330008093F100809146019091470101968F735F
:100340009927892B19F48EEF8093E800809146015C
:10035000909147010196909347018093460181E077
:10036000089580E00895EF92FF920F931F93CF932B
:10037000DF93F82E192FE62E042F81E0860F880FC9
:100380000E94850183E00E948501CF2DD12FEC0EC4
:10039000FD2EF11CCE15DF05B9F007FF13C0FE01DD
:1003A00084910E948501182F80E00E94850181239D
:1003B00021968111EFCFDF91CF911F910F91FF9087
:1003C000EF9008958881EDCF81E0F5CFDF92EF9235
:1003D000FF920F931F93CF93DF93D82E8A01EB01E7
:1003E0007B01E40EF51ECE15DF0559F0D7FE12C0D5
:1003F000FE0184910E94850121968111F4CF0FEFB7
:100400001FEFC801DF91CF911F910F91FF90EF90E7
:10041000DF9008958881EECF2FB7F894877080938E
:10042000E9009091E800892F807295FF04C09091B7
:10043000F20080E4891B2FBF08957F928F929F92D4
:10044000AF92BF92CF92DF92EF92FF920F931F93E2
:10045000CF93DF93C82E8B017A01809152018111D5
:1004600010C08FEF9FEFDF91CF911F910F91FF9001
:10047000EF90DF90CF90BF90AF909F908F907F9044
:10048000089580914A0180FF05C08091E00082605C
:100490008093E000CE2DDF2DD12C8AEFB82E8C2D4D
:1004A0008770982E8C2D8072882E8C2D8074782EDB
:1004B0009AE3A92E209719F4DD2009F44EC08C2D63
:1004C0000E940C02811106C0BA94BB2051F20E9416
:1004D0006D01F0CF8C171D0611F00CF08C2F9FB71B
:1004E000F8949092E9002091E80025FD02C09FBF9A
:1004F000E1CF282F30E0C21BD30B882029F0815098
:10050000A0F01092F100FBCFF801C7FC0AC08150A7
:1005100050F041914093F100FACF44914093F100A3
:1005200031968150D0F7020F131FDD2021F0A092E9
:10053000E800D12CDCCF8091E80085FD07C0A092B7
:10054000E800DD24D394209791F2F3CF209779F639
:10055000772069F2A092E800CACF5D9884E6809384
:100560004901C70180CF615030F02091F100FC01BA
:1005700020830196F8CF289884E68093510108954E
:1005800080913C0181110DC082E08093380184E0AC
:100590008093390110923B0110923A0181E08093DF
:1005A0003C0188E391E008951F93CF93DF9300D03F
:1005B00000D01F92CDB7DEB79091CE0199838A8388
:1005C0006B831C828091B80181112AC011E01093C5
:1005D000AB011093AC0181EB91E09093AE0180935D
:1005E000AD011092B0011092AF018FE291E09093B3
:1005F000A8018093A7011092B3011092B20110924A
:10060000B5011092B4011093B6011093B70181ECBB
:100610008093B1010E94C0020E94D8001093B801DB
:1006200081E08D8341E050E0BE016B5F7F4F8091A0
:10063000AA010E941D0297FD0AC08091AA0144E010
:1006400050E0BE016F5F7F4F80640E941D020F90DB
:100650000F900F900F900F90DF91CF911F91089501
:100660000F931F93CF93DF931F92CDB7DEB782E036
:10067000898342E450E06CEA70E080E80E94E60181
:100680000E94C002DC0112960D911C91011511050A
:1006900089F0D801ED91FC910280F381E02DBE013B
:1006A0006F5F7F4FC801099597FD04C0F801008571
:1006B0001185ECCF89810F90DF91CF911F910F9120
:1006C0000895CF93DF93EC0180910B01882331F0E3
:1006D00083E00E941D021816190634F081E090E0B4
:1006E0009B838A8380E090E0DF91CF910895CF9340
:1006F000DF931F92CDB7DEB76983DC01ED91FC91EA
:100700000280F381E02D41E050E0BE016F5F7F4F3A
:1007100009950F90DF91CF91089583E08093E900D0
:100720008091F200882319F08AE38093E80008950D
:1007300083E00E940C0290E00895CF93DF931F9214
:10074000CDB7DEB7FC018485958597FD08C02FEFF6
:100750003FEF358724870F90DF91CF910895CE0129
:1007600001960E941E01019719F4898190E0F3CF50
:100770008FEF9FEFF0CF2FB7F894809153019091B6
:100780005401A0915501B09156012FBF80935F0194
:1007900090936001A0936101B093620187E591E0BD
:1007A0000E949D0397FF26C02FB7F89480915301B4
:1007B00090915401A0915501B09156012FBF4091E5
:1007C0005F01509160016091610170916201841B31
:1007D000950BA60BB70B40915B0150915C016091AA
:1007E0005D0170915E0184179507A607B707B0F207
:1007F0008FEF9FEF08950F931F93CF93DF931F9277
:10080000CDB7DEB78C01FC018485958597FF0BC0C1
:10081000CE0101960E941E01019771F4898190E03A
:10082000F80195878487F801848595850F90DF917D
:10083000CF911F910F9108958FEF9FEFF1CFFC01A2
:100840008485958597FD0BC09FB7F89482E08093CF
:10085000E9008091F2009FBF90E0019608959FB754
:10086000F89482E08093E9008091F2009FBF90E0CD
:100870000895DC01FB0112962C91129784819581D9
:100880002817190641F491818081813A31F49D7FC6
:1008900081E0913009F080E008958132E1F79B30EA
:1008A00029F482811F968C9381E008959A3099F7FC
:1008B000828150968C93F8CFDC01FB0188E4808321
:1008C00089E4818384E482831D969C911D979F70A7
:1008D0009F5B93831D968D919C9124E096958795BF
:1008E0002A95E1F78F708F5B848385E00895EF92FE
:1008F000FF920F931F93CF93DF93FB012081213849
:1009000071F52381223259F5DC0112964C91248134
:1009100035814217130619F5EC010B851C85F12C66
:10092000E12C0115110589F0F8014481558162819E
:10093000738180E80E94E6018F3F980749F0E80E36
:10094000F91ED8010D911C91ECCF81E08F87C70172
:10095000DF91CF911F910F91FF90EF90089590E05C
:1009600080E0F6CFCF93DF93CDB7DEB769970FB6B0
:10097000F894DEBF0FBECDBFFC01DB018C918F5F11
:100980008C939E012D5F3F4F8DE0D9011D928A957A
:10099000E9F729E0298384E08A8391E09D8383E05D
:1009A0008E832A8721E22B879C879D879F8722E25F
:1009B000288B27E02B8B25E02C8B8E8B20E430E0DE
:1009C000388F2F8B998F82818B8395858685998B24
:1009D0008A8B838180688D8B49E150E0BE016F5F17
:1009E0007F4F80E00E94E60169960FB6F894DEBF63
:1009F0000FBECDBFDF91CF910895FC018081918121
:100A0000009711F00C94220C08950F931F93CF932D
:100A1000DF93EC0188819981009759F02A813B810D
:100A20002617370730F081E0DF91CF911F910F91AA
:100A300008958B016F5F7F4F0E94AB0C009759F0B8
:100A4000998388831B830A832C813D81232B59F74B
:100A5000FC011082E8CF80E0E7CFEF92FF920F9386
:100A60001F93CF93DF93EC017B018A01BA010E94AF
:100A7000050528813981811114C02115310519F02E
:100A8000C9010E94220C198218821D821C821B82BD
:100A90001A82CE01DF91CF911F910F91FF90EF90BD
:100AA00008951D830C83B701C9010E94710DF1CF18
:100AB00050E040E067E371E00C942D058F929F9227
:100AC000AF92BF92CF92DF92EF92FF920F931F935C
:100AD000CF93DF93EC018B01FB01C480D580D6015D
:100AE00011972FEF3FEFB12CA12C90E080E070E048
:100AF00060E0A817B9072CF14617570734F1FC013D
:100B000031967F018C159D0560F4F80180809180FD
:100B10008114910431F0F401E80FF91FE081EC3207
:100B200019F0A817B90759F46F5F7F4F5901FFEF0C
:100B3000AF1ABF0A9701A817B90709F09C01C701AE
:100B4000D8CF461757070CF053C069012A153B054B
:100B500010F065015901198218821B821A821D82C8
:100B60001C82CE010E945805F801E480F580CE1465
:100B7000DF0418F5AE14BF0408F47501F8016081B4
:100B80007181FB01EE0DFF1DB08010826C0D7D1D8B
:100B90006115710501F1FB0101900020E9F7319722
:100BA000AF01461B570BCE010E942D05F801808135
:100BB0009181E80EF91EF701B082CE01DF91CF914D
:100BC0001F910F91FF90EF90DF90CF90BF90AF906B
:100BD0009F908F90089588819981009711F00E94CD
:100BE000220C198218821D821C821B821A82DECF7F
:100BF000198218821B821A821D821C82CE010E94D9
:100C00005805DBCFFB01DC0111961C921E92139656
:100C10001C921E92129715961C921E92149786177C
:100C2000970749F0608171816115710521F0448158
:100C300055810C942D0508951F920F920FB60F92B7
:100C400011242F933F938F939F93AF93BF938091E2
:100C5000530190915401A0915501B09156013091EA
:100C60004C0123E0230F2D3758F50196A11DB11D2E
:100C700020934C018093530190935401A09355010C
:100C8000B093560180914D0190914E01A0914F017A
:100C9000B09150010196A11DB11D80934D0190931B
:100CA0004E01A0934F01B0935001BF91AF919F911E
:100CB0008F913F912F910F900FBE0F901F9018951D
:100CC00026E8230F0296A11DB11DD2CF1F920F92CD
:100CD0000FB60F9211248F939F938091E100909112
:100CE000E100937F9093E10083FF0FC01092E90031
:100CF00091E09093EB001092EC0092E39093ED0062
:100D00001092520198E09093F00082FF22C093E08D
:100D10009093E9009091F200992319F09AE390934F
:100D2000E80090914901992341F090914901915037
:100D300090934901911101C05D9A909151019923BD
:100D400041F090915101915090935101911101C046
:100D5000289A84FF18C08091E2008E7E8160809383
:100D6000E2008091E1008F7E8093E10080914A0152
:100D70008E7E806180934A019F918F910F900FBE6C
:100D80000F901F90189580FFF7CF8091E2008E7E24
:100D900080618093E2008091E1008E7E8093E1008B
:100DA00080914A018E7E8160E5CF1F920F920FB62F
:100DB0000F921124CF92DF92EF92FF920F931F9325
:100DC0002F933F934F935F936F937F938F939F9353
:100DD000AF93BF93EF93FF93CF93DF93CDB7DEB77E
:100DE0006C97DEBFCDBF1092E9008091E80083FFD1
:100DF00025C068E0CE0145960E94B30282EF809341
:100E0000E8008D8987FF39C09091E80090FFFCCF02
:100E1000982F907609F034C19E894F89588D2F897B
:100E2000F88C911131C0803861F580914B0180932D
:100E3000F1001092F1008EEF8093E8006C960FB6EF
:100E4000F894DEBF0FBECDBFDF91CF91FF91EF9140
:100E5000BF91AF919F918F917F916F915F914F91D2
:100E60003F912F911F910F91FF90EF90DF90CF90C6
:100E70000F900FBE0F901F9018959EEF9093E80073
:100E8000C7CF1092F100D5CF913059F48111D3CF53
:100E90004130510581F680914B018D7F80934B014C
:100EA000CACF933049F48111C6CF4130510519F6AC
:100EB00080914B018260F2CF953041F48091E8003F
:100EC00080FFFCCF20682093E300B5CF963009F077
:100ED000A9C00B8D1C8D22E01092E90010924701F1
:100EE00010924601F2122EC0109245011092440158
:100EF0000E9430031F8299E09983FA8291E09E83D9
:100F000090EA98879AEF998720914601309147019E
:100F1000275F3F4F3C832B838D831092E900109213
:100F2000470110924601109345010093440149E0A6
:100F300050E0BE016F5F7F4F80E00E94E6010E949B
:100F4000300379CF10934501009344010E94C00201
:100F5000DC0112960D911C910115110509F451C186
:100F6000D801ED91FC910480F581E02DBE016B5E0E
:100F70007F4FC8010995009709F03EC1F80100852F
:100F80001185EACFF3E0FF120EC08F89882309F4A0
:100F900040C0823061F440E866E18CE091E00E945C
:100FA000B301811148CF81E28093EB0047CF8130BC
:100FB00029F440E867E084E091E0F1CF833099F7CD
:100FC0000E94C002DC011296ED90FC908E010F5F32
:100FD0001F4F6801E114F10479F0D701ED91FC9104
:100FE0000680F781E02DB801C7010995080F111D92
:100FF000F701E084F184EECFD8011C92F601019054
:101000000020E9F73197BF016C197D0940E0C60166
:10101000C6CF6EEE70E0FB01449150E080E80E9484
:10102000E60109CF973009F4BECF983021F481E072
:101030008093F10000CF993009F0FDCE837009F064
:10104000B2CFEDE0F1E081E031E096E3219122239F
:1010500071F08093E9003093EB00DF0111972C9140
:101060002093EC009093ED008F5F873079F78EE747
:101070008093EA001092EA008F8980935201DBCEC0
:101080008B8D9C8D1092E9001092470110924601C1
:101090009093450180934401898D811192C08E897E
:1010A0009D89913A49F4813209F07DCF47E050E0C3
:1010B00064E071E080E0B3CF913209F074CF833205
:1010C00069F48F89988DB0E0A0E08093000190933F
:1010D0000101A0930201B0930301ADCE803269F407
:1010E0008091E80082FFFCCF67E084E091E00E94FD
:1010F000B3028BEF8093E8009ECE823209F09BCE44
:101100008F8980930B01EEEFFFE7859194918B3FE0
:101110009C4D51F1E0E0F8E08091040190910501CF
:10112000A0910601B0910701803B9440A105B10553
:10113000F1F480910B0180FD1AC0EE3F8AE0F807C0
:1011400089F587E797E7918380838091600080939A
:10115000480188E19BE00FB6F894A8958093600061
:101160000FBE9093600067CEEEEFFAE0D5CF80819E
:1011700091818737974709F05ECEA89580916000EE
:101180008861809360008091480180936000EE3F09
:101190002AE0F20789F08091FE0A9091FF0A91837C
:1011A000808349CE808191818737980751F290934F
:1011B000FF0A8093FE0AC5CF1092FF0A1092FE0A22
:1011C0003ACE0E94C002DC0112960D911C910115CD
:1011D000110509F4E8CED801ED91FC910190F08160
:1011E000E02DBE016B5E7F4FC8010995811123CEB2
:1011F000F80100851185EBCF181619060CF41BCEEB
:10120000D2CEF1E0FF12BECE62EF70E004CFCF93FA
:1012100010925A011092590188EE93E0A0E0B0E0DC
:1012200080935B0190935C01A0935D01B0935E019C
:101230008DE191E090935801809357018FEF9FEFDC
:1012400090936401809363011092CE018091C60156
:10125000811113C01092C1011092C00183E291E08C
:101260009093C3018093C20186E390E09093C501FF
:101270008093C40181E08093C6018091B8018111FF
:101280002AC0C1E0C093AB01C093AC0181EB91E0F7
:101290009093AE018093AD011092B0011092AF0116
:1012A0008FE291E09093A8018093A7011092B3017F
:1012B0001092B2011092B5011092B401C093B60120
:1012C000C093B70181EC8093B1010E94C0020E94DB
:1012D000D800C093B801E091B201F091B30130970A
:1012E000B9F480EC91E09093B3018093B2018091C6
:1012F000B4019091B5012091C4013091C501820FD4
:10130000931F9093B5018093B401CF910895FC0190
:10131000808191810097D9F780EC91E0918380835F
:10132000E6CFCF93DF93CDB7DEB76E970FB6F894C5
:10133000DEBF0FBECDBF789484B5826084BD84B516
:10134000816084BD85B5826085BD85B5816085BDC0
:1013500080916E00816080936E0010928100809178
:101360008100826080938100809181008160809300
:101370008100809180008160809380008091910045
:1013800082608093910080919100816080939100B0
:10139000809190008160809390008091C100846072
:1013A0008093C1008091C10082608093C1008091D0
:1013B000C10081608093C1008091C30081608093EF
:1013C000C3008091C00082608093C0008091C20001
:1013D00081608093C20080917A00846080937A005B
:1013E00080917A00826080937A0080917A00816097
:1013F00080937A0080917A00806880937A001092BE
:10140000520110924B0110924A018091D7008160E5
:101410008093D70080EA8093D80089B5806189BD28
:1014200089B5826089BD09B400FEFDCF0E946D01BF
:101430008091D8008F7C80618093D8008091E000FB
:10144000807F8093E0008091E1008E7E8093E100B8
:101450008DE08093E200559A209A8FEF9FEF909352
:1014600064018093630181E090E0A0E0B0E08093AC
:101470005B0190935C01A0935D01B0935E0180E0FD
:10148000E82E80E0F82E87E591E00E941F041816F0
:1014900019060CF0BBC01A8E198E1C8E1B8E1E8E68
:1014A0001D8ECE0149960E9458050E94BB0397FDF0
:1014B0001BC089831A820D8D1E8D0F5F1F4FB801CF
:1014C000CE0149960E940505882379F3298D3A8D2E
:1014D0008D8D9E8DBE016F5F7F4F820F931F0E9487
:1014E000710D1E8F0D8FE1CFBE01675E7F4FCE0164
:1014F00001960E94020650E040E0BE016F5F7F4F00
:10150000CE0143960E945E05CE0101960E94FD0425
:10151000BE01675E7F4FCE0101960E94020641E048
:1015200050E0BE016F5F7F4FCE010D960E945E05B9
:10153000CE0101960E94FD04BE01675E7F4FCE0181
:1015400001960E94020642E050E0BE016F5F7F4FAD
:10155000CE0107960E945E05CE0101960E94FD0411
:101560008F89988D892B09F441C089899A89892BA3
:10157000E9F18B859C85892BC9F18B899C8910E0C9
:10158000009719F00E940D0B162F8D859E8500E0A7
:10159000009719F00E940D0B062F8F819885812CE2
:1015A000912C5401009719F00E940D0B4B01602FF4
:1015B000812F0E94D4028A948928C1F49091CE018F
:1015C000892F8160981731F08093CE0160E080E030
:1015D0000E94D4028091CE01982F9E7F80FF06C08A
:1015E0009093CE0160E080E00E94D402CE01079685
:1015F0000E94FD04CE010D960E94FD04CE0143968B
:101600000E94FD04CE0149960E94FD04E114F104FC
:1016100009F439CF0E94000036CF1F93FC019927AF
:101620008827BC01E89411911032E9F3193010F0C9
:101630001E30C8F31B3251F01D3249F4689406C0C5
:101640000E94340B610F711D811D911D119110536A
:101650001A30B0F33EF490958095709561957F4F68
:101660008F4F9F4F1F910895592F482F372F262FA7
:10167000660F771F881F991F660F771F881F991F96
:10168000620F731F841F951F660F771F881F991F96
:1016900008952F923F924F925F926F927F928F9216
:1016A0009F92AF92BF92CF92DF92EF92FF920F93F1
:1016B0001F93CF93DF93CDB7DEB7CA1BDB0B0FB6FB
:1016C000F894DEBF0FBECDBF09942A8839884888B8
:1016D0005F846E847D848C849B84AA84B984C8844E
:1016E000DF80EE80FD800C811B81AA81B981CE0F45
:1016F000D11D0FB6F894DEBF0FBECDBFED0108952A
:10170000EE0FFF1F0590F491E02D09940F931F93A6
:10171000CF93DF938230910510F482E090E0E09166
:10172000D101F091D20130E020E0B0E0A0E03097AC
:1017300099F42115310509F44AC0281B390B2430CE
:101740003105D8F58A819B816115710589F1FB010D
:1017500093838283FE0111C04081518102811381F4
:1017600048175907E0F04817590799F4109761F0A6
:1017700012960C93129713961C933296CF01DF9119
:10178000CF911F910F9108950093D1011093D20131
:10179000F4CF2115310551F04217530738F0A90154
:1017A000DB019A01BD01DF01F801C1CFEF01F9CFE3
:1017B0009093D2018093D101CDCFFE01E20FF31FB0
:1017C000819391932250310939832883D7CF209177
:1017D000CF013091D001232B41F42091150130919C
:1017E00016013093D0012093CF0120911301309145
:1017F00014012115310541F42DB73EB74091170171
:1018000050911801241B350BE091CF01F091D001CC
:10181000E217F307A0F42E1B3F0B2817390778F0C7
:10182000AC014E5F5F4F2417350748F04E0F5F1F26
:101830005093D0014093CF01819391939FCFF0E0DB
:10184000E0E09CCFCF93DF930097E9F0FC01329763
:1018500013821282A091D101B091D201ED0130E04A
:1018600020E01097A1F420813181820F931F2091F5
:10187000CF013091D0012817390709F061C0F093EA
:10188000D001E093CF01DF91CF910895EA01CE1707
:10189000DF07E8F54A815B819E0141155105B1F7EB
:1018A000E901FB83EA8349915991C40FD51FEC17D5
:1018B000FD0761F4808191810296840F951FE901F3
:1018C00099838883828193819B838A83F0E0E0E01F
:1018D00012968D919C9113970097B9F52D913C919B
:1018E0001197CD010296820F931F2091CF01309165
:1018F000D0012817390739F6309751F51092D201E7
:101900001092D101B093D001A093CF01BCCFD3836B
:10191000C28340815181840F951FC817D90761F494
:101920004E5F5F4F88819981480F591F51834083D3
:101930008A819B81938382832115310509F0B0CF81
:10194000F093D201E093D1019ECFFD01DC01C0CF25
:1019500013821282D7CFB0E0A0E0E1EBFCE00C9460
:101960004B0B8C01009751F4CB010E94860B8C012C
:10197000C801CDB7DEB7E0E10C94670BFC01E60FC0
:10198000F71F9C0122503109E217F30708F49DC0AC
:10199000D901CD91DC911197C617D70798F0C530C2
:1019A000D10530F3CE0104978617970708F3C61BBD
:1019B000D70B2297C193D1936D937C93CF010E9453
:1019C000220CD6CF5B01AC1ABD0A4C018C0E9D1EB9
:1019D000A091D101B091D201512C412CF12CE12CDC
:1019E000109731F58091CF019091D001881599051C
:1019F00009F05CC04616570608F058C080911301E4
:101A000090911401009741F48DB79EB74091170152
:101A100050911801841B950BE817F90708F055C081
:101A2000F093D001E093CF01F90171836083A0CFDF
:101A30008D919C91119712966C90129713967C90B1
:101A40001397A815B90559F56C0142E0C40ED11CD5
:101A5000CA14DB0420F1AC014A195B09DA011296C1
:101A6000159780F06282738251834083D9016D9310
:101A70007C93E114F10471F0D7011396FC93EE937B
:101A8000129776CF22968C0F9D1FF9019183808348
:101A9000F301EFCFF093D201E093D10169CF481663
:101AA000590608F42C017D01D3019ACFCB010E9485
:101AB000860B7C01009749F0AE01B8010E94680DC9
:101AC000C8010E94220C870153CF10E000E050CFE4
:101AD000FB01DC0102C001900D9241505040D8F74B
:101AE0000895FB01DC0101900D920020E1F70895BB
:041AF000F894FFCF98
:101AF400FFFFFFFF00E100000000000000C1808143
:101B04000000000000D301800000000000770361A2
:101B14000398038D031F049D03FB03000000003999
:081B240004B20477045C040024
:00000001FF
