:100000000C94E5020C940D030C940D030C940D0359
:100010000C940D030C940D030C940D030C940D0320
:100020000C940D030C940D030C9433230C94A22315
:100030000C940D030C940D030C940D030C940D0300
:100040000C940D030C940D030C940D030C940D03F0
:100050000C940D030C940D030C940D030C94D425F7
:100060000C940D030C940D030C940D030C940D03D0
:100070000C940D030C940D030C940D030C940D03C0
:100080000C940D030C940D030C940D030C940D03B0
:100090000C941E260C940D030C940D030C940D036C
:1000A0000C940D030C940D030C940D03424D20632E
:1000B0006F6E666967757265640D0A0053657450EA
:1000C000726F746F3A000D0A005250495045207209
:1000D000636F64653A000D0A005345545F49444C10
:1000E000452072636F64653A000D0A0050524F5408
:1000F0004F434F4C20534554204849445F424F4F93
:10010000542072636F64653A000D0A000D0A496E4F
:10011000746572666163653A000D0A00624E756D22
:1001200049666163653A000D0A006249666163656C
:100130004E756D3A000D0A00436E663A000D0A00D6
:10014000624E756D45503A004849445F50524F54D5
:100150004F434F4C5F4D4F5553450D0A000D0A005C
:100160004E433A000D0A00416464723A000D0A00E1
:10017000736574416464723A006570696E666F0DF0
:100180000A00424D20496E69740D0A000D0A0020D4
:10019000000D0A0028686964626F6F742E68292058
:1001A000496E746572666163653A000D0A002868DD
:1001B0006964626F6F742E682920537472616E6770
:1001C00065207265616420636F756E743A20000D5E
:1001D0000A0028686964626F6F742E682920506F66
:1001E0006C6C3A000D0A0028686964626F6F742EA7
:1001F0006829206570496E666F5B6570496E74652D
:100200007272757074496E496E646578202B20692E
:100210005D2E6D6178506B7453697A653D000D0AEF
:100220000028686964626F6F742E682920657049C0
:100230006E666F5B6570496E746572727570744935
:100240006E496E646578202B20695D2E657041646F
:1002500064723D000D0A0028686964626F6F742E35
:10026000682920693D000D0A676574436F6E66203A
:10027000000D0A67657444657644657363722000F7
:100280000D0A73657444657654626C456E20000DEA
:100290000A736574436F6E6620000D0A005365741F
:1002A00049646C653A00485520636F6E66696775EE
:1002B0007265640D0A000D0A0053657449646C652B
:1002C0003A000D0A004E756D49666163653A000D8E
:1002D0000A00436E663A000D0A004E433A000D0ACA
:1002E00000416464723A000D0A00736574416464ED
:1002F000723A006570696E666F0D0A0048552049B4
:100300006E69740D0A0020656E64706F696E747397
:1003100020616E642063616E277420686F6C6420B6
:100320006D6F72652E20000D0A20456E64706F6936
:100330006E7458747261637428293A204E6F742069
:10034000616464696E6720656E64706F696E7420A5
:10035000696E666F206265636175736520776520DD
:10036000616C72656164792068617665200020693E
:100370006E746572666163657320616E642063618B
:100380006E277420686F6C64206D6F72652E20007C
:100390000D0A20456E64706F696E745874726163E3
:1003A0007428293A204E6F7420616464696E672056
:1003B00048494420696E74657266616365206265B0
:1003C000636175736520776520616C72656164791E
:1003D000206861766520000D0A0028686964636FF3
:1003E0006D706F736974652E682920506F6C6C3A5C
:1003F000000D0A0028686964756E6976657273611C
:100400006C2E682920506F6C6C3A004275666665E8
:100410007220706F696E746572206973204E554C3E
:100420004C210D0A002E2E2E4641494C0D0A00008B
:1004300000000200090F0000030401000C0000008E
:100440000000000000000000000000000000080B99
:10045000000202020000090400000102020000057F
:1004600024001001052401010104240206052406CC
:1004700000010705810310004009040100020A0081
:10048000000007050202400000070583024000004B
:100490000403090412010002EF02014054354FF534
:1004A000000101020301556E6B6E6F776E00322EF4
:1004B000344720576972656C6573732052656365B4
:1004C00069766572000D0A00285553423A3A496E22
:1004D0005472616E73666572292065702072657151
:1004E00075657374656420000D0A00285553423AFF
:1004F0003A496E5472616E73666572292061646454
:10050000722072657175657374656420000D0A0050
:10051000285553423A3A496E5472616E7366657259
:100520002920536574416464726573732046616960
:100530006C6564200000000000250028002B002EC0
:1005400000310000000000240027002A002D0030A8
:10055000000404040404030405020202020403026A
:10056000020202060606060606040402020204044B
:1005700004080201104080401020408040800802A2
:10058000040180402010020110801020404020050E
:10059000010902A1010901A100850105091901292B
:1005A00005150025019505750181029501750381E9
:1005B0000305010930093109381581257F75089532
:1005C000038106C0C0005028AE2D11241FBECFEFFE
:1005D000DAE0DEBFCDBF12E0A0E0B1E0E2E3F1E699
:1005E00002C005900D92A431B107D9F724E0A4E12F
:1005F000B2E001C01D92A035B207E1F712E0C4EEEF
:10060000D2E004C02197FE010E94882EC33ED1078C
:10061000C9F70E94762A0C948C300C940000CF937A
:10062000DF93FC01818190910F03482F490F5527DB
:10063000551F483051059CF5A281B381109709F5EB
:100640002BE033E033832283208120930D038093BA
:100650000E0380911003820F808320911103A22F3B
:10066000B09112038A2F821B8917E8F481813D9192
:10067000C82FD0E0C45FDE4F38838F5F8183F2CF15
:10068000D90118962D913C91199721153105C1F783
:100690002BE033E019963C932E931897D5CF80E04A
:1006A000DF91CF91089581E0FBCFDC0114962D916D
:1006B0003C911597232B41F0ED91FC9181E09081C5
:1006C000992319F080E0089581E008958CBD9DBDC7
:1006D000089590E0FC01E059FA4F24918F5A9A4F07
:1006E000FC018491882399F090E0880F991FFC0108
:1006F000ED5BFA4FA591B491FC01EB5CFA4F85914B
:1007000094918FB7F894EC91E22BEC938FBF0895FE
:10071000FC018091B902882311F13FB7F89482E07F
:100720008093E9002091F200822F90E018161906BC
:1007300014F481E090E0882339F0289844E640934F
:10074000B8024091F1004083222339F02091F20059
:10075000211103C02BE62093E8003FBF08958FEFDF
:100760009FEF0895089540919D0250919E0220911F
:100770009B0230919C0242175307B4F49091E80019
:100780009570E1F39091E80092FD19C08093F1001B
:1007900080919D0290919E0201968F739927892BDB
:1007A00019F48EEF8093E80080919D0290919E0253
:1007B000019690939E0280939D0281E0089580E0CF
:1007C0000895DF92EF92FF920F931F93CF93DF93E1
:1007D000D82E8A01EB017B01E40EF51ECE15DF0554
:1007E00059F0D7FE12C0FE0184910E94B3032196F6
:1007F0008111F4CF0FEF1FEFC801DF91CF911F914F
:100800000F91FF90EF90DF9008958881EECF2FB782
:10081000F89487708093E9009091E800892F8072A6
:1008200095FF04C09091F20080E4891B2FBF0895CA
:10083000615030F02091F100FC0120830196F8CF47
:10084000289884E68093B8020895809193028111DC
:100850000DC082E080938F0284E08093900210921A
:1008600092021092910281E0809393028FE892E0CD
:1008700008950F931F93CF93DF931F92CDB7DEB7E9
:1008800082E0898342E450E06EE474E080E80E94F4
:10089000E1030E942504DC0112960D911C910115C3
:1008A000110589F0D801ED91FC910280F381E02DD2
:1008B000BE016F5F7F4FC801099597FD04C0F80125
:1008C00000851185ECCF89810F90DF91CF911F9129
:1008D0000F910895CF93DF931F92CDB7DEB7698351
:1008E000DC01ED91FC910280F381E02D41E050E0CC
:1008F000BE016F5F7F4F09950F90DF91CF910895F3
:1009000083E08093E9008091F200882319F08AE364
:100910008093E800089583E00E94070490E0089522
:10092000CF93DF931F92CDB7DEB7FC018485958509
:1009300097FD08C02FEF3FEF358724870F90DF9199
:10094000CF910895CE0101960E948803019719F472
:10095000898190E0F3CF8FEF9FEFF0CF0F931F933C
:10096000CF93DF931F92CDB7DEB78C01FC01848556
:10097000958597FF0BC0CE0101960E9488030197D1
:1009800071F4898190E0F80195878487F801848566
:1009900095850F90DF91CF911F910F9108958FEF63
:1009A0009FEFF1CFFC018485958597FD0BC09FB724
:1009B000F89482E08093E9008091F2009FBF90E07C
:1009C000019608959FB7F89482E08093E9008091A2
:1009D000F2009FBF90E00895282F30E0F901E15D1B
:1009E000FB4F9491F901E059FA4F84912F5A3A4FF5
:1009F000F9012491222309F430C09923E9F09150A0
:100A00009F30D0F4E92FF0E0E85FFA4F0C94882E85
:100A100036053A0517052E0532051C051C051C0573
:100A20003D05430547054B0551051C0555059091AE
:100A300080009F7790938000E22FF0E0EE0FFF1F81
:100A4000EB5CFA4FA591B4919FB7F894EC916111CA
:100A500032C080958E238C939FBF08959091800023
:100A60009F7DE8CF90918000977FE4CF94B59F77EA
:100A700094BDE2CF94B59F7DFBCF909190009F777E
:100A800090939000D9CF909190009F7DF9CF909155
:100A90009000977FF5CF9091C0009F779093C00012
:100AA000CBCF9091C0009F7DF9CF9091C200977FEE
:100AB0009093C200C1CF8E2BCECF3FB7F8948091D8
:100AC0008B0290918C02A0918D02B0918E0226B57E
:100AD000A89B05C02F3F19F00196A11DB11D3FBF76
:100AE000BA2FA92F982F8827BC01CD01620F711D45
:100AF000811D911D42E0660F771F881F991F4A953F
:100B0000D1F708958F929F92AF92BF92CF92DF92CA
:100B1000EF92FF924B015C010E945D056B017C012D
:100B20000E945D056C197D098E099F09683E73401E
:100B300081059105A8F321E0821A9108A108B10866
:100B400088EEC80E83E0D81EE11CF11C81149104CC
:100B5000A104B10429F7FF90EF90DF90CF90BF90F0
:100B6000AF909F908F9008957F928F929F92AF92B7
:100B7000BF92CF92DF92EF92FF920F931F93CF938A
:100B8000DF93C82E8B017A018091B902811110C0C8
:100B90008FEF9FEFDF91CF911F910F91FF90EF901B
:100BA000DF90CF90BF90AF909F908F907F900895EF
:100BB0008091A10280FF05C08091E0008260809357
:100BC000E000CE2DDF2DD12C8AEFB82E8C2D877032
:100BD000982E8C2D8072882E8C2D8074782E9AE31E
:100BE000A92E209719F4DD2009F452C08C2D0E9403
:100BF000070481110AC0BA94BB2051F261E070E091
:100C000080E090E00E948205ECCF8C171D0611F069
:100C10000CF08C2F9FB7F8949092E9002091E80097
:100C200025FD02C09FBFDDCF282F30E0C21BD30BB4
:100C3000882029F08150A0F01092F100FBCFF8013C
:100C4000C7FC0AC0815050F041914093F100FACFA7
:100C500044914093F10031968150D0F7020F131F59
:100C6000DD2021F0A092E800D12CDCCF8091E800BB
:100C700085FD07C0A092E800DD24D394209791F26F
:100C8000F3CF209779F6772069F2A092E800CACFD7
:100C90005D9884E68093A002C7017CCF1F93CF9319
:100CA000DF9300D000D01F92CDB7DEB79091320312
:100CB00099838A836B834C8380911C0381112AC0A2
:100CC00011E010930F031093100385E193E09093CC
:100CD00012038093110310921403109213038DE4F6
:100CE00091E090930C0380930B03109217031092E2
:100CF0001603109219031092180310931A031093FD
:100D00001B0381EC809315030E9425040E940F03AE
:100D100010931C0381E08D8341E050E0BE016B5FC6
:100D20007F4F80910E030E94B40597FD0AC0809109
:100D30000E0344E050E0BE016F5F7F4F80640E946D
:100D4000B4050F900F900F900F900F90DF91CF91FF
:100D50001F9108959091320380958923981739F057
:100D60008093320340E060E080E00C944E060895EA
:100D700090913203892B981739F08093320340E029
:100D800060E080E00C944E060895CF93DF93EC0171
:100D900080910B01882331F083E00E94B40518167E
:100DA000190634F081E090E09B838A8380E090E034
:100DB000DF91CF9108952FB7F894609187027091D9
:100DC00088028091890290918A022FBF08950F9323
:100DD0001F930E94DB066093C3027093C40280934A
:100DE000C5029093C6028BEB92E00E94900497FF9D
:100DF0001DC00E94DB060091C3021091C402209125
:100E0000C5023091C602601B710B820B930B0091DF
:100E1000BF021091C0022091C1023091C20260173E
:100E2000710782079307F8F28FEF9FEF1F910F91E1
:100E3000089520913C02260F3327331F21323105BC
:100E4000ECF420916002FC0190E080E0243069F035
:100E500082E00895A0913C022191AC01445E5D4F77
:100E6000A40FB52FB11D2C930196861798F380918E
:100E70003C02680F60933C0280E0089581E0089591
:100E80008FEF9FEF08958FEF9FEF089580911502E8
:100E900090E09195819591090895CF93DF93CB01CF
:100EA000EA01642F0E941907CE01DF91CF910895C6
:100EB000CF93DF931F92CDB7DEB7698361E0CE0198
:100EC00001960E94190781E090E00F90DF91CF9189
:100ED0000895DC01FB0112962C9112978481958173
:100EE0002817190641F491818081813A31F49D7F60
:100EF00081E0913009F080E008958132E1F79B3084
:100F000029F482811F968C9381E008959A3099F795
:100F1000828150968C93F8CFDC01FB0188E48083BA
:100F200089E4818384E482831D969C911D979F7040
:100F30009F5B93831D968D919C9124E09695879558
:100F40002A95E1F78F708F5B848385E00895EF9297
:100F5000FF920F931F93CF93DF93FB0120812138E2
:100F600071F52381223259F5DC0112964C912481CE
:100F700035814217130619F5EC010B851C85F12C00
:100F8000E12C0115110589F0F80144815581628138
:100F9000738180E80E94E1038F3F980749F0E80ED3
:100FA000F91ED8010D911C91ECCF81E08F87C7010C
:100FB000DF91CF911F910F91FF90EF90089590E0F6
:100FC00080E0F6CFCF93DF93CDB7DEB769970FB64A
:100FD000F894DEBF0FBECDBFFC01DB018C918F5FAB
:100FE0008C939E012D5F3F4F8DE0D9011D928A9514
:100FF000E9F729E0298384E08A8391E09D8383E0F7
:101000008E832A8721E22B879C879D879F8722E2F8
:10101000288B27E02B8B25E02C8B8E8B20E430E077
:10102000388F2F8B998F82818B8395858685998BBD
:101030008A8B838180688D8B49E150E0BE016F5FB0
:101040007F4F80E00E94E10369960FB6F894DEBFFF
:101050000FBECDBFDF91CF910895CF93DF93EC0109
:101060008A819B81DC01ED91FC910480F581E02D6A
:101070006A8509958A85813439F4EA81FB81EA58C9
:10108000FF4F8081846080831A861B861C861D86A4
:101090001E861F86188A80E0DF91CF91089581E037
:1010A000693009F080E00895FC0182850895613877
:1010B000710529F0682F8BEB92E00C946A04089577
:1010C0000F931F93CF93DF938C01C4E0D0E0B8015E
:1010D00080E30E9457082197D1F7DF91CF911F91AC
:1010E0000F910895CF93DF936138710569F00097F0
:1010F00059F0EC01FE0184912196882329F060E8E3
:1011000070E00E945708F6CFDF91CF9108950F93BA
:101110001F93CF93DF93FC018B01EA0180819181C2
:10112000892B61F460E870E08BE094E00E94720823
:1011300080E0DF91CF911F910F91089592819923C3
:1011400019F128813981232B99F3D8012D913C91F4
:10115000D9014C918381682F691B770B8081918124
:10116000860F971FDC014C93828181508283888196
:101170009981019799838883D8018D919C911197CA
:1011800001968D939C93DACF8381828381E0D1CFC6
:10119000CF93DF93EC018C819D81DC01ED91FC917B
:1011A0000480F581E02D6E81099581E08E8F1E828D
:1011B0001F8E18A219A21AA21CA280E0DF91CF9163
:1011C0000895FC01DC01A65ABF4F8C918823A1F041
:1011D0008781681741F0828521E030E0681729F0A7
:1011E00090E080E0089530E020E0C901880F991F69
:1011F000820F931FE80FF91F808591850895FC01E8
:101200008781811104C080859185892B59F0828561
:10121000811106C08385948521E030E0892B21F07F
:1012200080E0089530E020E0C901880F991F820F07
:10123000931FE80FF91F67835187408781E0089566
:1012400008950F931F93CF93DF93EC018A818170F0
:10125000F8019081292F2170821751F0E881F981DE
:1012600090FF7BC00680F781E02DB801CE01099583
:101270008A8186958170F801908191FB222720F95F
:10128000821751F0E881F98191FF6BC00284F385E8
:10129000E02DB801CE0109958A8182FB882780F96B
:1012A000F801908192FB222720F9821751F0E88102
:1012B000F98192FF5AC00684F785E02DB801CE016E
:1012C00009958A8183FB882780F9F801908193FB37
:1012D000222720F9821751F0E881F98193FF49C054
:1012E0000288F389E02DB801CE0109958A818295A3
:1012F0008170F801908194FB222720F9821751F028
:10130000E881F98194FF39C00688F789E02DB8019A
:10131000CE010995F8018381882341F0E881F981A4
:10132000008CF18DE02DB801CE010995F801818185
:10133000811103C08281882341F0E881F981028014
:10134000F381E02DB801CE010995F80180818A83EF
:10135000DF91CF911F910F9108950480F581E02DC9
:1013600084CF0084F185E02D94CF0484F585E02DB1
:10137000A5CF0088F189E02DB6CF0488F589E02D4E
:10138000C6CFDF92EF92FF920F931F93CF93DF931D
:10139000EC0185E0E62EF12CFE01869FE00DF11DAB
:1013A0001124908596FF24C0192F177001E085E065
:1013B000D82E8FEF800F8F3008F001E0602F70E0A3
:1013C000062FD69EF001D79EF00D1124EC0FFD1FC5
:1013D00080858695869586958770181701F16F5FD1
:1013E0007F4F603168F38D81811302C011501D83DE
:1013F00085E08E9DF0018F9DF00D1124EC0FFD1FF7
:10140000108681E0818712862296D783C683DF917A
:10141000CF911F910F91FF90EF90DF900895CE0133
:101420000E94C109C6CFFC0120812EBD9B01215025
:10143000310941F051810DB407FEFDCF4EB55EBDBF
:101440004193F5CF61507109860F971F0DB407FEC8
:10145000FDCF2EB5FC0120830895FC0121E061340D
:1014600099F49C01255B3F4F61E0AC014E5F5F4FFB
:101470001586668717865487438735962E173F074C
:10148000B9F7FC01158208953585631729F02F5FA0
:1014900035962031C9F70895622F0C94C109CF9376
:1014A000DF93FC0167FD12C0283080F4442319F05B
:1014B0008581873059F0EF01A1E0B0E08D85882368
:1014C00049F111962596A031B105C1F780E018C009
:1014D00085E08A9FE0018B9FD00D1124CE0FDF1F86
:1014E000442389F081E4888785818F5F858325E0A7
:1014F0002A9FC0012B9F900D1124E80FF91F8085B2
:10150000DF91CF91089581E08887F1CF2770687BC4
:10151000622B0FC06623E1F26770660F660F660FDD
:101520004423A1F3606485818F5F85838770687F22
:10153000682B25E02A9FC0012B9F900D1124E80FF6
:10154000F91F6087862FDCCFFC0121E0611102C00A
:10155000069608953585631739F02F5F359620314B
:10156000C9F790E080E00895069635E0239F800D4E
:10157000911D112408950F931F93CF93DF9321158D
:10158000310599F0E901042F162F0E94A40AFC01ED
:1015900086ED309729F01283D183C083038380E0E6
:1015A000DF91CF911F910F91089588EDF9CF90E0D1
:1015B00080E0089508950F931F93CF93C82F8B0158
:1015C000282F30E084E0359527958A95E1F780E370
:1015D000820F8A3310F087E3820FB8010E94570808
:1015E000CF7080E38C0F8A3310F087E38C0FB80143
:1015F000CF911F910F910C945708EF92FF92CF93C8
:10160000DF93FC01E7018289823021F16787408BFB
:101610009B8193709330F1F49A8197FF1BC02E81C8
:10162000308D321708F4208F282F30E0D901AA0F0F
:10163000BB1FA20FB31FAE0FBF1F9F7017969C93C7
:1016400017979C8118969C93189794E019969C93F1
:101650008F5F828BDF91CF91FF90EF900895EF9293
:10166000FF920F9302970E94FD0A0F91FF90EF9057
:101670000895FC018789089570E0660F771F860F33
:10168000971FFC0185859685089581E0623009F0F9
:1016900080E0089581E0633009F080E00895FC0166
:1016A00086810895CF93DF93EC018C819D81DC01CD
:1016B000ED91FC910480F581E02D6E8109951F86E6
:1016C000188A81E08A8B1E821B8A1C8A1D8A1E8AC8
:1016D0001F8A80E0DF91CF9108952E9808952E9A69
:1016E000089570E0660F771F860F971FFC015687DD
:1016F000458781E00895FB018381082E000C990B3A
:101700009093B3028093B202089581E090E09093A9
:10171000A9028093A80208951092A9021092A8022B
:10172000089581E090E09093AB028093AA0208951F
:101730001092AB021092AA02089581E090E090937B
:10174000AD028093AC0208951092AD021092AC02EB
:10175000089581E090E09093AF028093AE020895E7
:101760001092AF021092AE02089581E090E0909343
:10177000B1028093B00208951092B1021092B002AB
:101780000895FB018181082E000C990B9093B702FC
:101790008093B6028281082E000C990B9093B502BB
:1017A0008093B40208950895EF92FF920F931F93D0
:1017B000422F202F8701DC01ED91FC9100A0F1A1C7
:1017C000E02D09951F910F91FF90EF90089581E012
:1017D0000895FC0184A10895FC018681089580E0AC
:1017E0000895CF93DF93FC01DA018281882359F0B9
:1017F000813069F081E023813481232B09F080E07E
:10180000DF91CF9108953483238381E082838381A4
:1018100094810097B1F02D913C911197232B51F3B6
:10182000019794838383EB01888199810196998341
:1018300088838D919C911197019711969C938E931B
:10184000E6CF1282D7CF2F923F924F925F926F9244
:101850007F928F929F92AF92BF92CF92DF92EF9240
:10186000FF920F931F93CF93DF9300D000D0CDB79B
:10187000DEB76C017A8369835C834B832C0182E140
:10188000480E511C83E0282E5601A7E0AA0EB11C79
:1018900012E0332433944601B0E18B0E911C3601E3
:1018A000EBE06E0E711C29813A812115310509F496
:1018B000D2C0D60190968C918230F1F0B0F5882399
:1018C00009F45AC0813089F7AE014F5F5F4FBE0106
:1018D0006D5F7F4FC5010E948708882309F4BBC054
:1018E000D6011596ED91FC911697808191968C9377
:1018F0009197818192968C93F6015682458220A21F
:10190000D60192968C919297843011F493961C9202
:10191000F60181A182508483258136813087278317
:101920008287818784E080A305C0833049F38430B7
:1019300009F0BBCFD60192968C91843039F1853075
:1019400009F450C0823009F077C0AE014F5F5F4F9D
:10195000BE016D5F7F4FC5010E948708882309F48F
:101960007AC0F601858984A3D60116969C928E9240
:10197000159790961C9297CFF601148385819681D6
:10198000908787831287118730A29ECFAE014F5F69
:101990005F4FBE016D5F7F4FC5010E94870888239E
:1019A00009F459C0D60155968C9155978330E1F6CC
:1019B00098968C9198978111D7CF93963C92939754
:1019C00052968C91529796968C93969753968C91AB
:1019D000539797968C93979757968C915797959680
:1019E0008C93C2CFAE014F5F5F4FBE016D5F7F4FE3
:1019F000C5010E948708882371F1F60183A188231D
:101A000009F4B2CF82819381009709F4ADCFDC0154
:101A1000ED91FC910190F081E02D7401D601959635
:101A20000C91959797962C91979796964C9196979F
:101A300094966C91099598CFF60121A12250330B11
:101A4000AE014F5F5F4FBE016D5F7F4FC3010E94CC
:101A5000F10B811189CF0F900F900F900F90DF91B4
:101A6000CF911F910F91FF90EF90DF90CF90BF909B
:101A7000AF909F908F907F906F905F904F903F902E
:101A80002F9008952F923F924F925F926F927F9284
:101A90008F929F92AF92BF92CF92DF92EF92FF927E
:101AA0000F931F93CF93DF9300D000D0CDB7DEB755
:101AB0006C017A8369835C834B832C0182E1480E3D
:101AC000511C83E0282E5601A7E0AA0EB11C12E09B
:101AD000332433944601B0E18B0E911C3601EBE0C8
:101AE0006E0E711C29813A812115310509F4D4C08B
:101AF000D60190968C918230F1F0B0F5882309F4EC
:101B00005AC0813089F7AE014F5F5F4FBE016D5FF4
:101B10007F4FC5010E948708882309F4BDC0D60104
:101B20001596ED91FC911697808191968C939197E3
:101B3000818192968C93F6015682458220A2D6012D
:101B400092968C919297843011F493961C92F601A0
:101B500081A18250848325813681308727838287C3
:101B6000818784E080A305C0833049F3843009F085
:101B7000BBCFD60192968C91843039F1853009F42F
:101B80004FC0823009F079C0AE014F5F5F4FBE0198
:101B90006D5F7F4FC5010E948708882309F47CC0D0
:101BA000F601858984A3D60116969C928E9215978C
:101BB00090961C9297CFF601148385819681908729
:101BC00087831287118730A29ECFAE014F5F5F4F90
:101BD000BE016D5F7F4FC5010E948708882309F40D
:101BE0005BC0D60155968C9155978330E1F6569699
:101BF0008C9156978130B9F698969C919897579604
:101C00008C91992351F0882371F2F60133A29289C5
:101C100096A3938997A385A3C6CF823021F6F5CFEB
:101C2000AE014F5F5F4FBE016D5F7F4FC5010E94E8
:101C30008708882389F1D60193968C9193978823FE
:101C400009F4B1CF12968D919C91009709F4ABCF16
:101C5000DC01ED91FC910190F081E02D7401D60141
:101C600095960C91959797962C91979796964C915F
:101C7000969794966C91099596CFF60121A12250E2
:101C8000330BAE014F5F5F4FBE016D5F7F4FC301EE
:101C90000E94F10B811187CF0F900F900F900F9042
:101CA000DF91CF911F910F91FF90EF90DF90CF9038
:101CB000BF90AF909F908F907F906F905F904F906C
:101CC0003F902F90089581E0089580E0089580E08E
:101CD0000895089580E0089508950F931F93CF937A
:101CE000DF93D82FC62F8A0180E591E00E9466031A
:101CF0000E946D0BD260DEBDF8018C2F882339F075
:101D00000DB407FEFDCF91919EBD8150F7CFC00F5E
:101D1000D12FD11D0DB407FEFDCF0E946F0BCE0158
:101D2000DF91CF911F910F9108950F931F93CF9340
:101D3000DF9300D0CDB7DEB7182F062F80E591E0F6
:101D40000E9466030E946D0B126019830A8362E091
:101D500070E0CE0101960E94130A0E946F0B0F9053
:101D60000F90DF91CF911F910F9108959F92AF92A5
:101D7000BF92CF92DF92EF92FF920F931F93CF9378
:101D8000DF936C01C42FD22F99249394E62EF12C6B
:101D9000EE0CFF1CE80EF91E86E5E80EF11CA42EE1
:101DA000B12CABE2AA0EB11CAA0CBB1CAC0CBD1C26
:101DB000F70180819181DC01ED91FC910280F3813A
:101DC000E02D202F4D2F6C2F0995182F803EC9F53F
:101DD000C1112BC061E088EE0E94950E66E670E0AE
:101DE00080E090E00E948205F70180819181DC0112
:101DF000ED91FC910190F081E02D202F4D2F6C2F63
:101E00000995182F8D30D1F58FEF890D8330F8F0BB
:101E1000C11137C061E088EE0E94950E66E670E061
:101E200080E090E00E9482051CC0F50180819181D4
:101E3000DC01ED91FC910284F385E02D6D2F099575
:101E4000D3CF8D3061F48FEF890D833050F464E689
:101E500070E080E090E00E9482059394A9CF8823EF
:101E600019F2812FDF91CF911F910F91FF90EF9089
:101E7000DF90CF90BF90AF909F900895882389F313
:101E8000C7CF8C2F90E08B96880F991F8C0D9D1DCE
:101E9000FC0180819181DC01ED91FC910284F3854C
:101EA000E02D6D2F0995DDCF8EBD00000DB407FE2E
:101EB000FDCF8EB50895CF93C82F80E591E00E94A5
:101EC00066030E946D0B8C2F0E94540F80E00E94CD
:101ED000540FC82F0E946F0B8C2FCF9108958F92B3
:101EE0009F92AF92BF92CF92DF92EF92FF920F93A9
:101EF0001F93CF93DF93882E962E5A010E94DB0604
:101F00006B017C0128E8C20E23E1D21EE11CF11C0A
:101F100010E000E0D0E0C0E098280E94DB066C19D9
:101F20007D098E099F0997FF1EC0692D80EF0E94D1
:101F3000950E0E94DB066C197D098E099F0997FF9B
:101F400009C088EC0E945B0F87FFF3CF60E888EC44
:101F50000E94950E88EF0E945B0FC82FCF70C4308F
:101F600081F0CE30B9F08C2FDF91CF911F910F917E
:101F7000FF90EF90DF90CF90BF90AF909F908F90A9
:101F800008950F5F1F4FA114B10439F20A151B0504
:101F900021F6E9CFDF5FD33009F0BFCFE4CFAF92B6
:101FA000BF92CF92DF92EF92FF920F931F93CF9346
:101FB000DF93EC01B62EA42E69010E94A40A7C01D5
:101FC00086EDE114F10409F447C0D701ED91FC91CD
:101FD000119787ED309709F43FC013969C9180E0EC
:101FE000981731F02081A21629F033968F5FF8CF31
:101FF000F0E0E0E0D601ED93FC938BED309761F1DA
:10200000228126952695203108F02FE081E090E08E
:10201000A0E0B0E004C0880F991FAA1FBB1F2A953B
:10202000D2F70197F801918380836B2D80EE0E9497
:10203000950E88ED0E945B0FD70114969C91682F36
:10204000697F992329F0CA58DF4F68816260682B45
:1020500088ED0E94950E80E0DF91CF911F910F9146
:10206000FF90EF90DF90CF90BF90AF90089588EFF2
:102070000E945B0F807C8034B1F018F4882301F15A
:102080000895803819F0803CC9F0089588ED0E94C9
:102090005B0F81FD0DC069EC88ED0E94950E82E01A
:1020A0008093BA02089588ED0E945B0F81FDF3CF03
:1020B0006BEC88ED0E94950E83E0F2CF81E0F0CFCB
:1020C00061ED88ED0E94950E1092BA020895862F58
:1020D000642F422F0C944E06862F0C94AA06862F4E
:1020E0000C94B806CF92DF92EF92FF920F931F935A
:1020F000CF93DF93EC0185E0C82ED12CFF24F3941D
:102100008C818F21D8019C919F21C9F181110AC036
:102110008A819B81DC01ED91FC910190F081E02DA1
:102120006F2D0995FF0CB1E0CB1AD10849F7F801E2
:1021300080818C831F82188619861A8622812D83BE
:10214000E480EE82F680F98607810A8727FF22C0A5
:1021500030E050E040E02F5F310941095109A2E829
:10216000BFEF0E941B2E21E83FEF4FEF5FEF0E9471
:10217000EE2D21503109410951092F830DC08823CB
:1021800089F28A819B81DC01ED91FC910280F381CF
:10219000E02DC6CF2111F1CFE7FE34C02E2D30E067
:1021A00050E040E02F5F310941095109A2E8BFEF3B
:1021B0000E941B2E21E83FEF4FEF5FEF0E94EE2DB4
:1021C000215031094109510928876F8148856111E2
:1021D00006C0411104C0F11002C0002351F08A81F1
:1021E0009B81DC01ED91FC910480F581E02D2F2D88
:1021F0000995DF91CF911F910F91FF90EF90DF90A4
:10220000CF900895EE2009F3E886DFCFCF92DF92DA
:10221000EF92FF920F931F93CF93DF93CDB7DEB76B
:10222000A1970FB6F894DEBF0FBECDBF282F30E0C8
:1022300050E040E019A28E010F5D1F4F8AE0C82ECA
:10224000D12CE12CF12CCA01B901A70196010E9401
:10225000572E605DF80162938F012115310541050C
:10226000510589F7309761F001900020E9F7319727
:10227000AF01401B510BB8018BEB92E00E94C506E9
:10228000A1960FB6F894DEBF0FBECDBFDF91CF9100
:102290001F910F91FF90EF90DF90CF900895EF92F4
:1022A000FF920F93FC01368D323018F0348D3613C7
:1022B00002C00E946C270F91FF90EF900895EF925B
:1022C000FF920F9302970E944F110F91FF90EF9092
:1022D0000895FC0180819181009711F00C942A2FC0
:1022E00008952F923F924F925F926F927F928F92BA
:1022F0009F92AF92BF92CF92DF92EF92FF920F9395
:102300001F93CF93DF937B013A016901F901A0800C
:10231000B180FB013180F90111821082FB018281C1
:1023200060E181FD60E288EE0E94950E2A2CA301F7
:10233000F701608180E00E946F0F582EF6E08F1346
:1023400010C088EF0E945B0FF70192819D7F84FF90
:102350009260928360E191FD60E288EE0E94950EAA
:10236000E6CF811150C088EC0E945B0F82FF5FC0F6
:1023700080E30E945B0F482E8A151B0411F008F0C1
:10238000422CF60180819181E501C81BD90BD7FF52
:1023900002C0D0E0C0E0842C912C8C169D060CF479
:1023A000E40180E591E00E9466030E946D0B88E0E5
:1023B0000E94540FAE0170E060E0C8010E947E30C0
:1023C000209721F0BE01C8010E94130A0C0F1D1FA7
:1023D0000E946F0B64E088EC0E94950EF6018081EC
:1023E0009181880E991E91828082431420F08A1474
:1023F0009B0408F49CCF88EF0E945B0FF701928149
:1024000084FB91F99283852DDF91CF911F910F91DC
:10241000FF90EF90DF90CF90BF90AF909F908F9004
:102420007F906F905F904F903F902F90089580EF36
:10243000582EE9CF8F929F92AF92BF92CF92DF92A8
:10244000EF92FF920F931F93CF93DF9300D000D0B2
:10245000CDB7DEB77C01C62ED42E590148011C82AF
:102460001B821A8219828E010F5F1F4F9E012D5F02
:102470003F4F0E94CF0F182F882309F445C061E811
:1024800070E080E195E00E94720861E870E0812FC1
:102490000E94DB0A61E870E08DE095E00E9472081E
:1024A00061E870E08BEE94E00E94720861E870E0F1
:1024B0008C2D0E94DB0A61E870E088EE94E00E94B7
:1024C000720861E870E088EC94E00E94720861E8AC
:1024D00070E08D2D0E94DB0A61E870E085EC94E0ED
:1024E0000E947208812F0F900F900F900F90DF9134
:1024F000CF911F910F91FF90EF90DF90CF90BF9001
:10250000AF909F908F90089549815A816B817C8113
:1025100084019501C7010E947111182FE3CF4F92DA
:102520005F926F927F928F929F92AF92BF92CF9263
:10253000DF92EF92FF920F931F93CF93DF93CDB76C
:10254000DEB7C254D1090FB6F894DEBF0FBECDBFBF
:10255000DC0194962C91211102C0D12C72C07C0117
:102560000E94DB06F701878C90A0A1A0B2A0681999
:1025700079098A099B0997FDF0CF0E94DB06D701F4
:1025800093962C91620F711D811D911DF701678F2C
:1025900070A381A392A3C12C5E01F1E4AF0EB11C24
:1025A00030E4632E712C47018AE5880E911CD70117
:1025B0005D968C91C81688F6EC2DF0E07296EE0FC1
:1025C000FF1FEE0FFF1FEE0DFF1D8081E82FF0E0D3
:1025D000CF01880F991FDC01AE0FBF1FAE0DBF1DCD
:1025E00096962C9130E0D5012D933C93DE01119607
:1025F0002D011D92AA16BB06E1F7E80FF91FEE0D9B
:10260000FF1D8201950145A1F701668184819581B5
:102610000E941A12D82E882369F1F4E08F1789F0EE
:1026200061E870E084EF93E00E94720861E870E076
:102630008D2D0E94DB0A61E870E081EF93E00E943B
:1026400072088D2DCE5BDF4F0FB6F894DEBF0FBE44
:10265000CDBFDF91CF911F910F91FF90EF90DF9051
:10266000CF90BF90AF909F908F907F906F905F9032
:102670004F900895D5018D919C91119781349105CA
:1026800010F06D927C92D701ED91FC9100A0F1A128
:10269000E02D8201D5012C91D4014C91B701C701E5
:1026A0000995D701ED91FC910288F389E02DD401C1
:1026B0008C918111D9806D2DC7010995009769F022
:1026C000DC01ED91FC910190F081E02D8201D501BA
:1026D0002C91D4014C91B7010995C39468CF3F92D6
:1026E0004F925F926F927F928F929F92AF92BF9222
:1026F000CF92DF92EF92FF920F931F93CF93DF93CE
:10270000CDB7DEB7C254D1090FB6F894DEBF0FBE05
:10271000CDBFDC0194962C91222309F4B4C06C0146
:102720000E94DB06F601878C90A0A1A0B2A06819D8
:1027300079098A099B0997FDA6C00E94DB06D6018C
:1027400093962C91620F711D811D911DF601678F6B
:1027500070A381A392A3312C5E01F1E4AF0EB11CF2
:1027600046018AE5880E911CD6015D968C9138163B
:1027700008F089C0E32DF0E07296EE0FFF1FEE0F18
:10278000FF1FEC0DFD1D60806620E1F1712C7301CF
:10279000EE0CFF1CF701E60DF71DEC0DFD1D86A1EB
:1027A00090E0F50191838083FE0131962F01119213
:1027B000EA15FB05E1F7F701E60DF71DEC0DFD1D30
:1027C0008201950145A1D60116966C911697149633
:1027D0008D919C910E941A12182F8823A9F08430A1
:1027E00089F061E870E08AED93E00E94720861E888
:1027F00070E0812F0E94DB0A61E870E087ED93E0D2
:102800000E9472083394B0CFF501808191810097C6
:10281000C9F38134910520F080E490E091838083B6
:10282000E60CF71CD601AE0DBF1DF601808191812B
:10283000FC01608C718C7201F5010081F401208132
:1028400095964C91B601C601F3010995D601ED911B
:10285000FC910288F389E02DD4018C9181111981BA
:10286000612FC6010995009769F2DC01ED91FC9199
:102870000190F081E02D8201D5012C91D4014C9181
:10288000B6010995BFCF80E0CE5BDF4F0FB6F8945D
:10289000DEBF0FBECDBFDF91CF911F910F91FF9093
:1028A000EF90DF90CF90BF90AF909F908F907F90F0
:1028B0006F905F904F903F9008952F923F924F926C
:1028C0005F926F927F928F929F92AF92BF92CF92C0
:1028D000DF92EF92FF920F931F93CF93DF93CDB7C9
:1028E000DEB766970FB6F894DEBF0FBECDBF3C01D2
:1028F000442E322E202EEA8ACE8AEBA4FCA4CDA44C
:10290000DEA41E861D86188A1F868E01015F1F4F5A
:102910009E01235F3F4F0E94CF0F582E81113BC174
:1029200039822A822A892B833E893C83BE82AD82EA
:1029300098868F82AE014F5F5F4F68E080E20E9411
:102940006D0E4F855889642D80E10E946F0F8111B3
:1029500040C1C114D10409F453C00D851E85D801AE
:1029600012968C91129737FE51C0826012968C930A
:10297000540122242394A114B10409F42FC1FC862C
:10298000EB864F8558896D857E8586019E01255F82
:102990003F4FC3010E947111582EB6E08B130EC039
:1029A00088EF0E945B0FED85FE8585FB882780F907
:1029B0008225928180FB91F99283DDCF8111EBC05A
:1029C000EFA5F8A93097A1F06B857C850190F08187
:1029D000E02D0190F081E02DC4018A199B099A87AE
:1029E00089879E01275F3F4FA6018FA598A909956A
:1029F0008B859C85A81AB90A8E159F0508F0BBCF58
:102A00004F85588937FEE1C080EAE0C081601296A8
:102A10008C93129711968C908FEF880D803408F06C
:102A2000DAC02F8438880E94DB069B01AC0128574E
:102A30003C4E4F4F5F4F2A8B3B8B4C8B5D8BD801AD
:102A400012968C9160E880FF60E488EE0E94950EFB
:102A5000512C912CE114F10409F48CC03401E814D8
:102A6000F90408F437016E8AA601662D80E10E9400
:102A70006D0E662D88E30E94950EF80160816062FC
:102A800080EF0E94950E88EC0E945B0F87FFFBCFC2
:102A900060E888EC0E94950E88EF0E945B0F8F70B3
:102AA000582E198AB12CA12C552021F10E94DB0649
:102AB0002A893B894C895D89621B730B840B950BBA
:102AC00097FF18C036E0531609F440C04EE0541684
:102AD000B1F054E0551209C08FEFA81AB80A2114BA
:102AE000310491F02A143B0479F460E088E30E94F9
:102AF000950E42C0E618F708C60CD71CABCF9989D3
:102B00009F5F998B933089F360E088E30E94950E74
:102B1000D6016C9180E10E94950E6E8988E30E9437
:102B2000950EF8016081606280EF0E94950E88EC3E
:102B30000E945B0F87FFFBCF60E888EC0E94950E38
:102B400088EF0E945B0F8F70582EAECF88EF0E94E7
:102B50005B0F85FB882780F9A1E08A27F801928125
:102B600080FB90F9928360E890FF60E488EE0E9419
:102B7000950ECACF5110B9CF88EF0E945B0FD801D4
:102B800012969C91129785FB90F912969C934F8513
:102B900058895520D1F0852D66960FB6F894DEBF82
:102BA0000FBECDBFDF91CF911F910F91FF90EF909E
:102BB000DF90CF90BF90AF909F908F907F906F905D
:102BC0005F904F903F902F90089580E8642D0E9471
:102BD0006F0F582EE0CF8AED582EDDCF4F855889E4
:102BE000552009F411CFD7CF8F929F92AF92BF9209
:102BF000CF92EF920F931F921F921F921F921F92DC
:102C00001F92912C812CB12CA12CC12CE42E09E017
:102C100020E040E00E945D140F900F900F900F9005
:102C20000F900F900F91EF90CF90BF90AF909F902B
:102C30008F9008958F929F92AF92BF92CF92EF9212
:102C40000F931F931F921F921F930F935F934F93A6
:102C50004A01B12CA12C32E0C32EE22E06E020E87E
:102C600040E00E945D140F900F900F900F900F9016
:102C70000F901F910F91EF90CF90BF90AF909F90CA
:102C80008F9008956F927F928F929F92AF92BF9292
:102C9000CF92DF92EF92FF920F931F93CF93DF9328
:102CA000CDB7DEB7C054D1090FB6F894DEBF0FBE62
:102CB000CDBF3C01F62EE42EB22EA32ECE010196FE
:102CC0006C018C01242F49E050E0C3010E941A16C8
:102CD00081111AC08B809C80AF92BF92DF92CF92FD
:102CE0001F9280E48F93B12CA12C82E0C82E06E0C5
:102CF00020E840E06F2DC3010E945D140F900F90FB
:102D00000F900F900F900F90C05CDF4F0FB6F894AC
:102D1000DEBF0FBECDBFDF91CF911F910F91FF900E
:102D2000EF90DF90CF90BF90AF909F908F907F906B
:102D30006F9008958F929F92AF92BF92CF92EF9231
:102D40000F931F921F923F932F935F934F934A01CC
:102D5000B12CA12CCC24C394E12C06E020E840E067
:102D60000E945D140F900F900F900F900F900F9096
:102D70000F91EF90CF90BF90AF909F908F9008955C
:102D80008F929F92AF92BF92CF92EF920F93CF9379
:102D90001F921F921F921F921F921F92912C812CA3
:102DA000B12CA12CC12CE62E05E020E040E060E033
:102DB0000E945D14C82F6CE271E080E090E00E94F8
:102DC00082050F900F900F900F900F900F908C2F07
:102DD000CF910F91EF90CF90BF90AF909F908F9039
:102DE00008952F923F924F925F926F927F928F92AF
:102DF0009F92AF92BF92CF92DF92EF92FF920F938A
:102E00001F93CF93DF93CDB7DEB767970FB6F894D4
:102E1000DEBF0FBECDBF1B8A38E03C8B3CE33D8B51
:102E20008A3F3FEF9307D9F406ED802F67960FB6E0
:102E3000F894DEBF0FBECDBFDF91CF911F910F91F0
:102E4000FF90EF90DF90CF90BF90AF909F908F90CA
:102E50007F906F905F904F903F902F900895122F2A
:102E6000342E462E7C01DC011696CD90DC9017970F
:102E7000CE01439617969C938E9316971A962C9391
:102E80009E012F5F3F4F42E150E060E0C7010E948A
:102E90009A16582EF701D782C682082F8111C5CF06
:102EA00089849A846B847C84FD81FE8B3E813F8B78
:102EB000670186E5C80ED11C5601212CD5018D91E4
:102EC0009C910097F1F52394B2E0AB0EB11CE0E1C8
:102ED0002E12F4CFF60180819181009709F070C025
:102EE0005394F2E0CF0ED11C30E15312F3CFF7012F
:102EF0008681978107ED892B09F497CF1287232DBF
:102F000040E0642DC7010E944F0AD82E04ED8823AB
:102F100009F48BCF682FC7010E94A40A009709F417
:102F200083CFDC0114961C936D2DC7010E94C0163F
:102F3000082F882309F479CF6D2DC7010E942D0A2F
:102F400074CFDC01ED91FC910084F185E02D0995B1
:102F50008111B9CFF50180819181DC01ED91FC9166
:102F60000088F189E02D6F890995882309F4ABCF9A
:102F7000F50180819181DC01ED91FC910484F5855E
:102F8000E02DA301B4010995882361F0012F232DC1
:102F9000442D622DC7010E94B60E082F813D09F411
:102FA00092CF43CFF50180819181DC01ED91FC91BD
:102FB0000684F785E02D6E8909958111E7CF83CFCF
:102FC000DC01ED91FC910084F185E02D09958111E2
:102FD00087CFF60180819181DC01ED91FC91008821
:102FE000F189E02D6F89099581110DC0012F232DE5
:102FF000442D652DC7010E94B60E082F877F813DA5
:1030000009F013CF6DCFF60180819181DC01ED9144
:10301000FC910484F585E02DA301B401099581118B
:103020005FCFF60180819181DC01ED91FC910684F6
:10303000F785E02D6E8909958823C1F251CF8F92D3
:103040009F92AF92BF92CF92EF920F93A42EB12C8A
:103050001F921F921F921F921F921F92912C812CE0
:10306000C12CE62E01E023E240E0FC016285828172
:1030700093810E945D140F900F900F900F900F900E
:103080000F900F91EF90CF90BF90AF909F908F9047
:1030900008958F929F92AF92BF92CF92EF920F932B
:1030A000A62EB12C1F921F925F934F931F9224E084
:1030B0002F9324E0822E912CC12CE12C00E023EAF6
:1030C00040E0FC016285828193810E945D140F9033
:1030D0000F900F900F900F900F900F91EF90CF9057
:1030E000BF90AF909F908F9008958F929F92AF92D4
:1030F000BF92CF92EF920F93A42EB12C1F921F92EA
:103100001F921F921F921F92912C812CC12CE62E90
:1031100003E023E240E0FC016285828193810E940A
:103120005D140F900F900F900F900F900F900F91D4
:10313000EF90CF90BF90AF909F908F900895CF92D7
:10314000DF92EF92FF921F93CF93DF93EC01162F44
:103150007A01FA0180819181A281B3818130F3E00B
:103160009F07F1E0AF07B105C9F170F48115E1E007
:103170009E07AE07B10509F450C081309140A140CF
:10318000B10561F180E041C0833021E0920720E188
:10319000A207B10529F083309340A041B10591F712
:1031A000412F64E1CE010E941F18412F60E1CE0142
:1031B0000E941F1864E170E080E090E00E948205A8
:1031C0006A85F7012181269521706770412F8A81D8
:1031D0009B810E94F11610921402D4CF80911402A8
:1031E0008111D0CF412F61E1CE010E941F18412FE4
:1031F00060E1CE010E941F18412F64E0CE010E94C1
:10320000751881E08093140281EBDF91CF911F91BB
:10321000FF90EF90DF90CF900895462F61E1CE01AF
:103220000E941F18412F60E1CE010E941F181092CA
:1032300014028A8587701770880F880F880F182BE3
:1032400009F4A0CFEA80FB806701F6E5CF0ED11C20
:10325000D0E0C0E0D6018D919D916D010097C1F045
:10326000DC01ED91FC910084F185E02D09951813A6
:103270000FC0AB96CC0FDD1FCE0DDF1D888199816D
:10328000DC01ED91FC910480F581E02D09957ACF68
:103290002196C031D105F1F675CFCF92DF92EF9232
:1032A000FF920F931F93CF93DF93CDB7DEB72E9787
:1032B0000FB6F894DEBF0FBECDBFFC0120892111EF
:1032C00011C010E0812F2E960FB6F894DEBF0FBE0E
:1032D000CDBFDF91CF911F910F91FF90EF90DF90C5
:1032E000CF9008957C010E94DB06F70104851585C7
:1032F00026853785601B710B820B930B97FDE1CF01
:1033000081E090E09E878D878E010F5F1F4F9E01A9
:10331000235F3F4F41E06285828193810E941A12B0
:10332000182F811121C082E0D82E01E089818D21E2
:1033300039F119861A861B861C86AE01475F5F4FDE
:10334000602FC7010E944918C82E811119C0AE0113
:10335000475F5F4F602FC7010E949F18813B19F0A4
:10336000882371F0C82E1C2D0E94DB066C597F4FFC
:103370008F4F9F4FF7016487758786879787A2CF06
:10338000DD0C0F5F083091F601E0F70183858017AF
:1033900058F319861A861B861C86AE01475F5F4F5D
:1033A000602FC7010E944918D82E811117C0898546
:1033B0009A85877091708130914081F48B859C85CE
:1033C00081609C878B87AE01475F5F4F602FC7018D
:1033D0000E949F18813B29F0811102C00F5FD5CF59
:1033E000D82E1D2DC1CFCF92DF92FF920F931F9346
:1033F000CF93DF9300D000D0CDB7DEB78C01F62E8F
:1034000019821A821B821C82462F61E10E941F18BA
:103410004F2D60E1C8010E941F184F2D64E0C801C4
:103420000E94751883E0C82ED12CAE014F5F5F4F0C
:103430006F2DC8010E944918811114C089819A8199
:10344000AB81BC819D7F83309140A041B10551F09B
:1034500064E670E080E090E00E94820581E0C81A96
:10346000D10819F74F2D64E1C8010E941F184F2D94
:1034700060E1C8010E941F1864E170E080E090E004
:103480000E9482050F900F900F900F90DF91CF91C7
:103490001F910F91FF90DF90CF9008952F923F9250
:1034A0004F925F926F927F928F929F92AF92BF9254
:1034B000CF92DF92EF92FF920F931F93CF93DF9300
:1034C000CDB7DEB7E8970FB6F894DEBF0FBECDBF1D
:1034D000DC011A963C91311120C1922E242E362EF9
:1034E0003C01FC01E280F380D701ED91FC91019059
:1034F000F081E02D60E0C70109958C01009709F487
:103500000FC1FC01C080D180C114D10409F40BC1EA
:103510005301F4E0AF0EB11CDC011196BC92AE92E7
:1035200014969C92FE0131962F019F0148E050E0D5
:1035300060E0D30112968D919C910E949A16982E6C
:10354000F80114828111F5C08D8191ED992E893099
:1035500059F58980D701ED91FC910280F381E02D2E
:10356000222D41E0632DC7010995F301828788234D
:1035700009F4DCC098859583682F828193810E942D
:10358000C016982ED801CD92DC92882339F1D7014C
:10359000ED91FC910480F581E02DD3011A966C9198
:1035A000C7010995F3011286892DE8960FB6F894A4
:1035B000DEBF0FBECDBFDF91CF911F910F91FF9066
:1035C000EF90DF90CF90BF90AF909F908F907F90C3
:1035D0006F905F904F903F902F900895811076C02C
:1035E000950142E0F3016285828193810E94BB0ACA
:1035F000982E81117EC01F921F925F924F921F9250
:1036000088E08F9358E0852E912CB12CA12C69E293
:10361000C62EE12C06E020EA40E0F30162858281BB
:1036200093810E945D14982E0F900F900F900F9031
:103630000F900F9081115DC08B81D3011B968C93ED
:103640001B97820120E048E050E01A966C911A978F
:1036500012968D919C910E941A16982E811149C044
:103660004B815C8120E0F3016285828193810E941D
:103670001A16982E81113DC0498150E08E010F5DD0
:103680001F4F20E0D3011A966C911A9712968D91D4
:103690009C910E941A16982E81112BC04E81F30125
:1036A0006285828193810E94F415982E811121C038
:1036B00011E0D3011B968C911B97811708F1412FC4
:1036C00068E0C3010E9475181F5FF3CF482D413297
:1036D00008F040E250E09201D3011A966C911A97DB
:1036E00012968D919C910E949A16982E882309F427
:1036F00077CF60E870E085E294E00E94720854CFD2
:103700001296ED91FC911397EA58FF4F80818460E7
:10371000808381E050968C9347CF49ED942E44CF1F
:1037200036ED932E41CF27ED922E3ECF84ED982E8D
:103730003BCFD182C08238CF3F924F925F926F923F
:103740007F928F929F92AF92BF92CF92DF92EF9231
:10375000FF920F931F93CF93DF93CDB7DEB7EB9715
:103760000FB6F894DEBF0FBECDBF3C01462E342EFF
:10377000522EDC011496AD90BC9060E870E08CEFA6
:1037800092E00E947208F301868119ED81110DC04B
:10379000D501ED91FC910190F081E02D60E0C50133
:1037A00009957C010097D1F416ED812FEB960FB6A9
:1037B000F894DEBF0FBECDBFDF91CF911F910F9167
:1037C000FF90EF90DF90CF90BF90AF909F908F9041
:1037D0007F906F905F904F903F900895FC018080A4
:1037E00091808114910441F460E870E083EF92E0ED
:1037F0000E94720817EDD9CF6301F5E2CF0ED11CFC
:10380000DC011196DC92CE9214965C929E01265DAC
:103810003F4F48E050E060E0F301848195810E94D1
:103820009A16182F8111BAC10AA5D7018D929C92C0
:10383000D501ED91FC910280F381E02D232D40E034
:10384000642DC5010995F301868314ED882309F4DD
:10385000ACCF99A996A3682F848195810E94C01648
:10386000182F882311F1D70114961C92D501ED91E0
:10387000FC910480F581E02DD30116966C91C50171
:103880000995F301168260E870E08AEE92E00E94EA
:10389000720860E870E0812F0E94DB0A60E870E047
:1038A00087EE92E00E94720880CF60E870E081EEBF
:1038B00092E00E94720860E870E0D30116968C9145
:1038C0000E94DB0A60E870E08EED92E00E947208D0
:1038D000F7011482D501ED91FC910190F081E02D6A
:1038E000D30116966C91C5010995009709F45CCF38
:1038F000FC015482011165C08AA99BA9F301E35A16
:10390000FF4F918380838CA99DA9329791838083F7
:103910005BAC960141E0D30116966C911697149614
:103920008D919C910E94BB0A182F81112FC160E8D4
:1039300070E08AED92E00E94720860E870E0852DE8
:103940000E94DB0A60E870E087ED92E00E94720856
:1039500025E3A22E21E0B22E4301F2E08F0E911C4E
:103960007E0181E1E80EF11C151509F45EC0BA82F2
:10397000A9829C828B821D821A861B861E86188ACB
:103980001F8619A21AA21BA219A6FF82EE82F9862F
:10399000E886FD86EC869E012F5F3F4F412FD301C5
:1039A00016966C91169714968D919C910E944216D2
:1039B000082F81111FC0F301868D8230B0F51F5F83
:1039C000D3CF033108F002E1402F50E09E01265D85
:1039D0003F4FF3016681848195810E949A16182FCA
:1039E000882309F489CF60E870E081E792E00E94C3
:1039F000720807C060E870E086E692E00E947208F4
:103A0000102F60E870E0812F0E94DB0A60E870E010
:103A10008AE992E00E947208D301ED91FC91048042
:103A2000F581E02DC3010995C0CED3015E964C917E
:103A30005E9711ED423008F4B8CE960116966C915F
:103A4000169714968D919C910E94BB0A60E870E0D5
:103A500082ED92E00E94720860E870E0F301848DCC
:103A60000E94DB0A60E870E08FEC92E00E9472082E
:103A7000D3015C964C915C9716966C9116971496B0
:103A80008D919C910E94F415182F60E870E08111CF
:103A900082C085EC92E00E94720860E870E0F30159
:103AA000858D0E94DB0A60E870E082EC92E00E9463
:103AB0007208F12CD3015D968C91F81608F053C072
:103AC0000F2D10E0F8017296EE0FFF1FEE0FFF1F93
:103AD000E60DF71D8081811102C0F394EBCF60E801
:103AE00070E089EB92E00E947208000F111F000F36
:103AF000111F060D171D0A5B1F4FF801808160E83A
:103B000070E087700E94DB0A60E870E086EB92E06C
:103B10000E947208D8018C918770A82EB12C1F9238
:103B20001F921F921F921F921F92912C812CC12CC9
:103B3000E12C0AE021E240E0F30166818481958175
:103B40000E945D14182F0F900F900F900F900F9000
:103B50000F90882311F2853009F4BFCF60E870E040
:103B60008DE992E044CF60E870E086EA92E00E943E
:103B70007208D301ED91FC910688F789E02DC3010D
:103B8000099581E0F30184A310E00FCE60E870E0B6
:103B900080E892E02CCF8FE892E029CFF701918264
:103BA000808221CF4F925F926F927F928F929F92ED
:103BB000AF92BF92CF92DF92EF92FF920F931F933B
:103BC000CF93DF93CDB7DEB7C455D1090FB6F894C4
:103BD000DEBF0FBECDBF3C01162F442E522EDC019E
:103BE0001496AD90BC9060E870E082E891E00E948D
:103BF0007208F301868181115AC2108ED501ED91B0
:103C0000FC910190F081E02D60E0C50109957C01F7
:103C10000097D1F416ED812FCC5ADF4F0FB6F894F0
:103C2000DEBF0FBECDBFDF91CF911F910F91FF90EF
:103C3000EF90DF90CF90BF90AF909F908F907F904C
:103C40006F905F904F900895FC0180809180811467
:103C5000910441F460E870E089E791E00E94720805
:103C600017EDD9CF6301F7E0CF0ED11CDC0111961F
:103C7000DC92CE9214965C929E012F5B3F4F48E0FF
:103C800050E060E0F301848195810E949A16082F2C
:103C900081110FC222960FAD2297D7018D929C926F
:103CA000D501ED91FC910280F381E02D242D40E0BF
:103CB000612FC5010995F301868314ED882309F46A
:103CC000AACF29969FAD29979087682F84819581E7
:103CD0000E94C016182F882311F1D70114961C9248
:103CE000D501ED91FC910480F581E02DD30116966C
:103CF0006C91C5010995F301168260E870E080E7D8
:103D000091E00E94720860E870E0812F0E94DB0A57
:103D100060E870E08DE691E00E9472087CCF60E878
:103D200070E087E691E00E94720860E870E0D301DD
:103D300016968C910E94DB0A60E870E084E691E0C0
:103D40000E947208F7011482D501ED91FC91019057
:103D5000F081E02DD30116966C91C501099500976D
:103D600009F458CFFC01548201114EC063960FAD87
:103D7000639760E870E080E691E00E94720860E876
:103D800070E0802F0E94DB0A60E870E08DE591E032
:103D90000E94720860E870E088E491E00E94720876
:103DA00029E2A22E21E0B22E4301F2E08F0E911CF7
:103DB0007E0181E1E80EF11C101709F455C0BA82AA
:103DC000A9829C828B821D821A861B861E86188A77
:103DD0001F8619A21AA21BA219A6FF82EE82F986DB
:103DE000E886FD86EC869E012F5F3F4F412FF30151
:103DF0006681848195810E944216D30152968C91EE
:103E0000823091F11F5FD8CF033108F002E1402FDB
:103E100050E09E012F5B3F4FD30116966C91169791
:103E200014968D919C910E949A16082F882309F46C
:103E30009DCF60E870E081E792E00E947208102F49
:103E400060E870E0812F0E94DB0A60E870E08AE998
:103E500092E00E947208D301ED91FC910480F581FB
:103E6000E02DC3010995D7CE60E870E080E491E0D1
:103E70000E94720860E870E0F30182890E94DB0A08
:103E800060E870E08DE391E00E947208D3015296E1
:103E90008C91529711ED823099F6960142E0169678
:103EA0006C91169714968D919C910E94BB0A60E8C4
:103EB00070E088E391E00E94720860E870E0F3012E
:103EC00087850E94DB0A60E870E085E391E00E944C
:103ED000720868EE73E080E090E00E948205D301F2
:103EE0001F964C911F9716966C91169714968D916C
:103EF0009C910E94F415182F8111D2C068EE73E0D6
:103F000080E090E00E94820560E870E08AE291E043
:103F10000E94720860E870E0F30180890E94DB0A69
:103F200060E870E087E291E00E94720860E870E06B
:103F30008CE191E00E94720860E870E0D301519634
:103F40008C910E94DB0A60E870E089E191E00E94B8
:103F5000720860E870E08CE091E00E94720860E80E
:103F600070E080E00E94DB0A60E870E089E091E0A8
:103F70000E9472081F921F921F921F921F921F92FF
:103F8000912C812CB12CA12CC12CF301E18C0BE0E4
:103F900021E240E06681848195810E945D14182FA2
:103FA0000F900F900F900F900F900F9060E870E0BF
:103FB0008CEB90E0111178C08CEE90E00E947208BA
:103FC00060E870E080E00E94DB0A60E870E089EE63
:103FD00090E00E9472081F921F921F921F921F92E0
:103FE0001F92E12C0AE021E240E0D30116966C9189
:103FF000169714968D919C910E945D14082F60E88D
:1040000070E089ED90E00E94720860E870E0802F17
:104010000E94DB0A60E870E086ED90E00E94720882
:10402000FE01ED5AFF4F8FE291E091838083FF9371
:10403000EF93CE0101969F938F931F9280E48F930D
:1040400080E8882E912C92E2C92E06E021E840E01B
:10405000F3016681848195810E945D14082F60E8D8
:1040600070E089EC90E00E94720860E870E0802FB8
:104070000E94DB0A60E870E086EC90E00E94720823
:1040800060E870E08CEA90E00E94720881E0D30161
:1040900057968C930FB6F894DEBF0FBECDBFBBCD45
:1040A00060E870E08FE892E00E947208C9CE19EDD6
:1040B000B2CDF70191828082BCCE0E9470300F9306
:1040C0001F93CF93DF93EC0188819981009759F07A
:1040D0002A813B812617370730F081E0DF91CF91AD
:1040E0001F910F9108958B016F5F7F4F0E94B32F37
:1040F000009759F0998388831B830A832C813D8123
:10410000232B59F7FC011082E8CF80E0E7CFEF9234
:10411000FF920F931F93CF93DF93EC017B018A01F2
:10412000BA010E945F2028813981811114C02115B4
:10413000310519F0C9010E942A2F198218821D82A7
:104140001C821B821A82CE01DF91CF911F910F91A9
:10415000FF90EF9008951D830C83B701C9010E9461
:104160008530F1CF50E040E063E172E00C948720AD
:104170008F929F92AF92BF92CF92DF92EF92FF9277
:104180000F931F93CF93DF93EC018B01FB01C4804E
:10419000D580D60111972FEF3FEFB12CA12C90E0E5
:1041A00080E070E060E0A817B9072CF146175707C8
:1041B00034F1FC0131967F018C159D0560F4F80106
:1041C000808091808114910431F0F401E80FF91F8F
:1041D000E081EC3219F0A817B90759F46F5F7F4FEF
:1041E0005901FFEFAF1ABF0A9701A817B90709F0E5
:1041F0009C01C701D8CF461757070CF053C069017F
:104200002A153B0510F065015901198218821B829D
:104210001A821D821C82CE010E94B220F801E48025
:10422000F580CE14DF0418F5AE14BF0408F4750150
:10423000F80160817181FB01EE0DFF1DB0801082DD
:104240006C0D7D1D6115710501F1FB0101900020D0
:10425000E9F73197AF01461B570BCE010E9487202B
:10426000F80180819181E80EF91EF701B082CE013C
:10427000DF91CF911F910F91FF90EF90DF90CF9042
:10428000BF90AF909F908F900895888199810097FB
:1042900011F00E942A2F198218821D821C821B8213
:1042A0001A82DECF198218821B821A821D821C821A
:1042B000CE010E94B220DBCFFB01DC0111961C92E3
:1042C0001E9213961C921E92129715961C921E9285
:1042D00014978617970749F0608171816115710500
:1042E00021F0448155810C94872008951F93CF932A
:1042F000DF9385ED8093BC008091180290911902A4
:10430000A0911A02B0911B020796A11DB11D23E0D6
:10431000B695A795979587952A95D1F72091BC00DA
:1043200024FD03C01092600252C0409118025091C7
:10433000190260911A0270911B02452B462B472BE4
:1043400069F30097A105B10541F02AE22A95F1F73A
:1043500000C00197A109B109E1CF80911702C1E026
:10436000C0931602882399F1D091B8001091BA0039
:104370008091BC008A7B8093BC0060E082E00E9458
:10438000EC0460E083E00E94EC0410926002C093B1
:1043900062021092610261E082E00E94EC0461E03E
:1043A00083E00E94EC048091B9008E7F8093B90075
:1043B0008091B9008D7F8093B90088E48093B80024
:1043C00085E48093BC001093BA00D093B800DF91CD
:1043D000CF911F9108955F926F927F928F929F92DB
:1043E000AF92BF92CF92DF92EF92FF920F931F9303
:1043F000CF93DF9300D0CDB7DEB77C016DB67EB62C
:10440000DC0157968C91811119C0512C852D0FB666
:10441000F8947EBE0FBE6DBE0F900F90DF91CF91CE
:104420001F910F91FF90EF90DF90CF90BF90AF90D2
:104430009F908F907F906F905F9008950E94DB0611
:10444000F7010389148925893689601B710B820B5A
:10445000930B97FDDACFADB6BEB661E870E087E5A5
:1044600092E00E94720881E890E00E94600861E892
:1044700070E084E592E00E94720861E870E081E2F9
:1044800092E00E94720861E870E0D7011A968C9160
:104490000E94DB0A61E870E08EE192E00E947208FF
:1044A00061E870E087EE91E00E94720861E870E0D8
:1044B000F70183850E94DB0A61E870E084EE91E0F9
:1044C0000E947208D7011B968C9190E0813491056F
:1044D00008F056C09A83898389819A81EDB7FEB727
:1044E000E81BF90B0FB6F894FEBF0FBEEDBF2DB75A
:1044F0003EB72F5F3F4F690189019E012F5F3F4FFC
:10450000D7011A964C911A9716966C911697149695
:104510008D919C910E941A12582E811134C02981CC
:104520003A812330310598F1F7018585968500970A
:1045300049F0DC01ED91FC910190F081E02D40E02B
:10454000B701099589819A8110E0892B09F479C016
:1045500029813A81812F90E08217930708F069C082
:104560008C0D9D1D60E870E0DC018C910E94DB0ADF
:1045700060E870E08FE891E00E9472081F5FE8CF6A
:1045800080E490E0A7CFB4E08B1709F45AC061E84B
:1045900070E082ED91E00E94720861E870E0852D84
:1045A0000E94DB0A61E870E08FEC91E00E947208E3
:1045B000511047C089819A81892B09F442C060E873
:1045C00070E08EEA91E00E94720889809A800CE087
:1045D00010E0C401002E02C0969587950A94E2F778
:1045E000982F9F7080E3890F8A3310F087E3890F3B
:1045F00060E870E00E945708045011090C3FEFEF8B
:104600001E0739F760E870E08BEA91E00E947208BB
:1046100060E870E084E991E00E94720880E890E030
:104620000E94600860E870E081E991E00E947208F1
:1046300089CF232B31F060E870E08CE891E00E9494
:1046400072080FB6F894BEBE0FBEADBE0E94DB0668
:10465000F701208D620F711D811D911D638B748B7D
:10466000858B968BD3CE1F920F920FB60F9211248B
:104670008F939F938091E1009091E100937F9093BD
:10468000E10083FF0FC01092E90091E09093EB00EE
:104690001092EC0092E39093ED001092B90298E032
:1046A0009093F00082FF22C093E09093E9009091F4
:1046B000F200992319F09AE39093E8009091A002F8
:1046C000992341F09091A00291509093A0029111F2
:1046D00001C05D9A9091B802992341F09091B8027F
:1046E00091509093B802911101C0289A84FF18C08C
:1046F0008091E2008E7E81608093E2008091E100F3
:104700008F7E8093E1008091A1028E7E80618093F4
:10471000A1029F918F910F900FBE0F901F9018953F
:1047200080FFF7CF8091E2008E7E80618093E2006F
:104730008091E1008E7E8093E1008091A1028E7EC7
:104740008160E5CF1F920F920FB60F921124CF9286
:10475000DF92EF92FF920F931F932F933F934F930C
:104760005F936F937F938F939F93AF93BF93EF93D9
:10477000FF93CF93DF93CDB7DEB76C97DEBFCDBF8E
:104780001092E9008091E80083FF25C068E0CE0127
:1047900045960E94180482EF8093E8008D8987FF78
:1047A00039C09091E80090FFFCCF982F907609F0E7
:1047B00034C19E894F89588D2F89F88C911131C051
:1047C000803861F58091A2028093F1001092F1008F
:1047D0008EEF8093E8006C960FB6F894DEBF0FBEA4
:1047E000CDBFDF91CF91FF91EF91BF91AF919F919D
:1047F0008F917F916F915F914F913F912F911F9179
:104800000F91FF90EF90DF90CF900F900FBE0F9021
:104810001F9018959EEF9093E800C7CF1092F1007B
:10482000D5CF913059F48111D3CF4130510581F664
:104830008091A2028D7F8093A202CACF933049F467
:104840008111C6CF4130510519F68091A2028260D4
:10485000F2CF953041F48091E80080FFFCCF2068D2
:104860002093E300B5CF963009F0A9C00B8D1C8DC5
:1048700022E01092E90010929E0210929D02F21224
:104880002EC010929C0210929B020E9439041F823B
:1048900099E09983FA8291E09E8390EA98879AEF53
:1048A000998720919D0230919E02275F3F4F3C8364
:1048B0002B838D831092E90010929E0210929D022C
:1048C00010939C0200939B0249E050E0BE016F5F91
:1048D0007F4F80E00E94E1030E94390479CF10935A
:1048E0009C0200939B020E942504DC0112960D910C
:1048F0001C910115110509F451C1D801ED91FC91EC
:104900000480F581E02DBE016B5E7F4FC8010995E3
:10491000009709F03EC1F80100851185EACFF3E068
:10492000FF120EC08F89882309F440C0823061F4E1
:1049300040E866E18EEA94E00E943927811148CF71
:1049400081E28093EB0047CF813029F440E867E0B3
:1049500086EA94E0F1CF833099F70E942504DC01C8
:104960001296ED90FC908E010F5F1F4F6801E114CD
:10497000F10479F0D701ED91FC910680F781E02DEB
:10498000B801C7010995080F111DF701E084F184F2
:10499000EECFD8011C92F60101900020E9F7319783
:1049A000BF016C197D0940E0C601C6CF60E974E023
:1049B000FB01449150E080E80E94E10309CF973069
:1049C00009F4BECF983021F481E08093F10000CF4C
:1049D000993009F0FDCE837009F0B2CFEDE0F1E03F
:1049E00081E031E096E32191222371F08093E90088
:1049F0003093EB00DF0111972C912093EC00909302
:104A0000ED008F5F873079F78EE78093EA00109290
:104A1000EA008F898093B902DBCE8B8D9C8D10923A
:104A2000E90010929E0210929D0290939C02809346
:104A30009B02898D811192C08E899D89913A49F49A
:104A4000813209F07DCF47E050E064E071E080E022
:104A5000B3CF913209F074CF833269F48F89988D86
:104A6000B0E0A0E08093000190930101A0930201C7
:104A7000B0930301ADCE803269F48091E80082FFEB
:104A8000FCCF67E084E091E00E9418048BEF8093F4
:104A9000E8009ECE823209F09BCE8F8980930B0175
:104AA000EEEFFFE7859194918B3F9C4D51F1E0E053
:104AB000F8E08091040190910501A0910601B09168
:104AC0000701803B9440A105B105F1F480910B01F1
:104AD00080FD1AC0EE3F8AE0F80789F587E797E77F
:104AE000918380838091600080939F0288E19BE0A6
:104AF0000FB6F894A895809360000FBE9093600065
:104B000067CEEEEFFAE0D5CF808191818737974766
:104B100009F05ECEA8958091600088618093600066
:104B200080919F0280936000EE3F2AE0F20789F0B7
:104B30008091FE0A9091FF0A9183808349CE808103
:104B400091818737980751F29093FF0A8093FE0A6C
:104B5000C5CF1092FF0A1092FE0A3ACE0E94250499
:104B6000DC0112960D911C910115110509F4E8CE96
:104B7000D801ED91FC910190F081E02DBE016B5EBA
:104B80007F4FC8010995811123CEF8010085118559
:104B9000EBCF181619060CF41BCED2CEF1E0FF12A3
:104BA000BECE64E974E004CF1F920F920FB60F924D
:104BB00011242F933F938F939F93AF93BF93809133
:104BC000870290918802A0918902B0918A02309167
:104BD000860223E0230F2D3758F50196A11DB11D44
:104BE000209386028093870290938802A093890283
:104BF000B0938A0280918B0290918C02A0918D02D9
:104C0000B0918E020196A11DB11D80938B029093ED
:104C10008C02A0938D02B0938E02BF91AF919F91B1
:104C20008F913F912F910F900FBE0F901F9018956D
:104C300026E8230F0296A11DB11DD2CF1F920F921D
:104C40000FB60F9211242F933F934F935F936F935F
:104C50007F938F939F93AF93BF93EF93FF93809135
:104C6000B900887F803609F44AC0F0F5883209F42B
:104C7000A5C018F5803109F499C0B8F4882309F467
:104C8000F5C0883009F492C0FF91EF91BF91AF91C8
:104C90009F918F917F916F915F914F913F912F9154
:104CA0000F900FBE0F901F901895883109F486C0A1
:104CB000803251F780935F0214C0803409F49BC0A6
:104CC00040F48033B9F38833F9F680935F0285ECC2
:104CD000AEC0803509F483C0883509F494C08834A7
:104CE00099F60E947621D0CF883909F48AC038F528
:104CF000883729F050F4883611F0803729F683E0A0
:104D00008093600210925E0255C0883809F479C021
:104D1000803919F0803809F0B7CF80915E02803277
:104D200008F06FC0E0915E0281E08E0F80935E021A
:104D30008091BB00F0E0E25CFD4F80833BC0803B94
:104D400039F0D0F4803A09F477C0883A09F09CCF62
:104D500084E08093600210923D0210923C02F0E0E9
:104D6000E0E0099580913C0281110FC081E08093C1
:104D70003C0210921C0209C0803C09F4A8CF883C78
:104D800009F4A5CF883B09F07FCFE0913D0281E097
:104D90008E0F80933D02F0E0E45EFD4F80818093B2
:104DA000BB0090913D0280913C0229C08091850218
:104DB0008093BB0085EC8093BC0066CF9091840209
:104DC00080918302981758F5E091840281E08E0F5C
:104DD00080938402F0E0ED59FD4F8081E9CFE091AE
:104DE000840281E08E0F809384028091BB00F0E00A
:104DF000ED59FD4F80839091840280918302981732
:104E0000C8F285E8D8CFE091840281E08E0F8093CC
:104E100084028091BB00F0E0ED59FD4F80838091CA
:104E2000620281115ECF81E08093610284EA809307
:104E3000BC001092600228CF85EC8093BC001092D9
:104E4000600280915E02803230F4E0915E02F0E018
:104E5000E25CFD4F108260915E0270E08EE392E0B2
:104E6000F0E0E0E0099510925E020ECF10925F0232
:104E700038CFEF92FF920F931F93CF93DF93F82ECB
:104E8000192FE62E042F81E0860F880F0E94B303AE
:104E900083E00E94B303CF2DD12FEC0EFD2EF11C29
:104EA000CE15DF05B9F007FF13C0FE0184910E9403
:104EB000B303182F80E00E94B30381232196811150
:104EC000EFCFDF91CF911F910F91FF90EF90089559
:104ED0008881EDCF81E0F5CF8F929F92AF92BF9204
:104EE000CF92DF92EF92FF920F931F93CF93DF93B6
:104EF000EC01342F402F6C8F8D8DF0E0E0E0032F1C
:104F000010E0A22EB12C842E912CE81758F5E53034
:104F1000F10541F1BF01660F771F660F771FDE01B4
:104F2000A60FB71FAA5BBF4F9C91592F5770501700
:104F30001106A9F5592F56955695569557705A153D
:104F40001B0469F59295969596959370981519049A
:104F500031F56E0156E4C50ED11CC60ED71EC11424
:104F6000D104D9F58530E8F060E870E080E993E09D
:104F70000E9472088D8D0E94061160E870E08EE636
:104F800093E0DF91CF911F910F91FF90EF90DF9011
:104F9000CF90BF90AF909F908F900C9472083196F5
:104FA000B4CFA4E08A9FC00111246E01B6E4CB0EF9
:104FB000D11CC80ED91E2770220F220F220F832F5B
:104FC0008770282B842F8295880F880F807C282B50
:104FD000F60120838D8D8F5F8D8FD70113968C9175
:104FE0001397837010E0833029F412968C9112E0AD
:104FF00087FD11E0E881F981068CF78DE02D632FA4
:10500000CE0109958823A9F1112399F18E8D8B305A
:1050100070F060E870E087E293E00E9472088E8D85
:105020000E94061160E870E086E093E0AACF282F86
:1050300030E0F901EE0FFF1FE20FF31FEC0FFD1F31
:10504000D70112969C9112979F7095A314969C91EC
:10505000149796A394E097A3C10ED11CF601818307
:1050600016968C919BA1981708F48BA38E8D8F5F59
:105070008E8FDF91CF911F910F91FF90EF90DF9076
:10508000CF90BF90AF909F908F900895EF92FF9236
:105090000F9302970E946C270F91FF90EF90089555
:1050A000CF93DF931092BE021092BD0288EE93E080
:1050B000A0E0B0E08093BF029093C002A093C10231
:1050C000B093C2028BE391E09093BC028093BB0249
:1050D0008FEF9FEF9093C8028093C7021092320324
:1050E00080912A03811113C010922503109224038A
:1050F0008FE895E0909327038093260386E390E062
:10510000909329038093280381E080932A03809160
:105110001C0381112AC0C1E0C0930F03C093100388
:1051200085E193E09093120380931103109214038E
:10513000109213038DE491E090930C0380930B0382
:10514000109217031092160310921903109218036D
:10515000C0931A03C0931B0381EC809315030E9434
:1051600025040E940F03C0931C03E0911603F091E5
:105170001703309709F09FC184E293E090931703DF
:1051800080931603809118039091190320912803AE
:1051900030912903820F931F909319038093180372
:1051A0008FEE91E09093D6038093D5031092DD03A8
:1051B00081E08093DE031092DF0387ED93E090930C
:1051C000DC038093DB031092D70388E08093D8033D
:1051D0008CE38093D9031092DA03E5EDF3E091E0DC
:1051E00027ED33E015869687178634872387359613
:1051F00084E0E032F807B1F710924B0481E180932C
:10520000330329ED31E03093C5032093C40325ED2A
:1052100033E03093C7032093C6031092D403109257
:10522000C80388E08093C9032CE32093CA039093BA
:10523000CB038093CC0384E08093CD031092CE0304
:105240001092CF031092D0031092D1031092D20388
:105250001092D303ABE2B4E0FD0190E080E0219135
:105260003191232B09F030C1880F991FFC01E55DB6
:10527000FB4F84EC93E09183808385ED93E09093E2
:10528000AF038093AE0385EB91E09093AB038093E3
:10529000AA0383ED91E09093AD038093AC03109249
:1052A000BD031092BE031092BF031092C003109270
:1052B000C1031092C30381E08093BC031092BB032F
:1052C0001092B10388E08093B2038CE38093B30320
:1052D0001092B4031092B50384E08093B603109249
:1052E000B7031092B8031092B903EBE2F4E090E038
:1052F00080E021913191232B09F0ECC0880F991F98
:10530000FC01E55DFB4F8AEA93E09183808385EDA4
:1053100093E09093500380934F038FE591E0909337
:105320004C0380934B0383E891E090934E0380936A
:105330004D0310926A0310926B0310926C0310924B
:105340006D0310926E0310926F031092A5031092DA
:10535000520310925403109253031092550310926B
:105360005703109256031092580310925A0310924A
:10537000590310925B0310925D0310925C0310922C
:105380005E031092600310925F031092610310920B
:1053900063031092620310926403109266031092EA
:1053A0006503E2E9F3E090E080E0EC01CC0FDD1F63
:1053B000CC0FDD1FCF56DC4F288128732883108245
:1053C0001182019634968530910579F7CBE4D3E0CC
:1053D00090E080E01DA2582F28E0811120E02EA34C
:1053E000BC01660F771F9B01280F391F2E583C4FB9
:1053F000F90140814E7F4D7F40833FE0511131E004
:10540000FB01E80FF91FEE58FC4F330F330F2081DB
:105410002370232B2083019623968B309105D1F6A0
:1054200081E080936903109268031092670390E013
:1054300080E02D913D91232B09F052C0880F991FD8
:10544000FC01E55DFB4F8BE493E09183808389E869
:1054500091E090934C0380934B038FEA91E09093FB
:105460004E0380934D0389E591E09093410380932F
:10547000400383E191E090934303809342031092B1
:10548000440310923B0310923A0310923D03109292
:105490003C0310923F0310923E038AE393E00E9484
:1054A000B22089EF91E09093350380933403DF912C
:1054B000CF910895FC01808191810097D9F784E212
:1054C00093E0918380835ECE01968031910509F04F
:1054D000C6CED3CE01968031910509F00ACF17CF01
:1054E00001968031910509F0A4CFB1CFCF93DF931E
:1054F000CDB7DEB76E970FB6F894DEBF0FBECDBF47
:10550000789484B5826084BD84B5816084BD85B59E
:10551000826085BD85B5816085BD80916E008160AA
:1055200080936E0010928100809181008260809350
:105530008100809181008160809381008091800052
:1055400081608093800080919100826080939100BF
:1055500080919100816080939100809190008160A2
:10556000809390008091C10084608093C1008091FD
:10557000C10082608093C1008091C10081608093EE
:10558000C1008091C30081608093C3008091C000FE
:1055900082608093C0008091C20081608093C200CD
:1055A00080917A00846080937A0080917A00826092
:1055B00080937A0080917A00816080937A00809154
:1055C0007A00806880937A001092B9021092A20249
:1055D0001092A1028091D70081608093D70080EA69
:1055E0008093D80089B5806189BD89B5826089BD05
:1055F00009B400FEFDCF61E070E080E090E00E9421
:1056000082058091D8008F7C80618093D800809142
:10561000E000807F8093E0008091E1008E7E8093A7
:10562000E1008DE08093E200559A209A8FEF9FEF82
:105630009093C8028093C70281E090E0A0E0B0E0C0
:105640008093BF029093C002A093C102B093C202A4
:10565000269A0E946F0B1FB7F8948091A3028111C4
:1056600024C0E2E6F5E08491E1E8F5E09491E82FCA
:10567000F0E0EE0FFF1FED5BFA4FA591B491EC91B6
:10568000E92321F461E081E10E94EC0481E10E94C0
:1056900069038CB580618CBD8CB580648CBD8FE056
:1056A0000E94690380E10E9469038091A3028F5FD9
:1056B0008093A3021FBF209A289A259868E188E862
:1056C0000E94950E60E288E70E94950E60E088E7F0
:1056D0000E94950E10E000E088E60E945B0F0F5FCD
:1056E0001F4F80FF1CC061EC88ED0E94950E60E6A4
:1056F00080ED0E94950E64E088EE0E94950E88EE83
:105700000E945B0F82FFFBCF0E94371060E288ECA3
:105710000E94950E61E080E80E94950E03C00F3F45
:105720001007D1F684E393E09093B8038093B70316
:1057300040E2942E50E0C52E50E0D52E93E1892E04
:1057400021E1722E30E5632E1092B7021092B6025C
:105750001092B5021092B4021092B3021092B202EB
:1057600083B1182F107285FD0CC088EC0E945B0F6E
:1057700085FF03C00E94371010E2612F88EC0E9461
:10578000950E8091BA02813041F050F0823009F4D8
:1057900060C0833069F010E021C080923303FBCFFA
:1057A00080913303807F8031B1F370923303F3CF64
:1057B00011E080913303807F803181F40E94DB0609
:1057C00068537F4F8F4F9F4F6093A4027093A50241
:1057D0008093A6029093A702909233038BE2A82EA7
:1057E00084E0B82E7501D7018D919D917D010097C0
:1057F00039F0DC01ED91FC910680F781E02D0995EF
:10580000BBE4EB16B4E0FB0671F780913303803400
:1058100009F456C000F58032E9F1803309F44AC03A
:10582000813109F05CC010924B04F5018191919196
:105830005F01009739F0DC01ED91FC910480F58166
:10584000E02D0995EA14FB0481F782E1809333038C
:1058500046C010E0AECF813509F4A4C0803809F409
:10586000B4C08035E1F588EC0E945B0F86FF37C03D
:1058700081E5809333030E94DB066C5E7F4F8F4F80
:105880009F4F6093A4027093A5028093A602909309
:10589000A70225C00E94DB060091A4021091A50278
:1058A0002091A6023091A702601B710B820B930B13
:1058B00097FD15C061E088EE0E94950E80E4C6CF8A
:1058C00088EE0E945B0F80FD0AC088ED0E945B0F8E
:1058D000682F686088ED0E94950E60923303809176
:1058E000B0029091B102009709F07FC081E00E9460
:1058F000AA068091AE029091AF02009709F07CC099
:1059000082E00E94AA068091AC029091AD020097BD
:1059100009F079C084E00E94AA068091AA029091C1
:10592000AB02009709F076C080E10E94AA06809140
:10593000A8029091A902009709F073C088E00E9424
:10594000AA068BEB92E00E94D204181619060CF0FE
:10595000FCC01A8E198E1C8E1B8E1E8E1D8ECE01C3
:1059600049960E94B2200E94E70697FD61C0898394
:105970001A820D8D1E8D0F5F1F4FB801CE01499603
:105980000E945F20882379F3298D3A8D8D8D9E8D1D
:10599000BE016F5F7F4F820F931F0E9485301E8F65
:1059A0000D8FE1CF0E94DB062091A4023091A50269
:1059B0004091A6025091A702621B730B840B950BBA
:1059C00097FD8DCF80E880933303212F40E060E086
:1059D00085ED93E00E94F116882329F0823D09F4B9
:1059E0007ECF80EA33CF80E931CF019709F081CFB4
:1059F00081E00E94B8067DCF019709F084CF82E054
:105A00000E94B80680CF019709F087CF84E00E94FA
:105A1000B80683CF019709F08ACF80E10E94B806CB
:105A200086CF019709F08DCF88E00E94B80689CF14
:105A3000BE01675E7F4FCE0101960E945C2150E05F
:105A400040E0BE016F5F7F4FCE0143960E94B820B9
:105A5000CE0101960E946911BE01675E7F4FCE01A3
:105A600001960E945C2141E050E0BE016F5F7F4FD4
:105A7000CE010D960E94B820CE0101960E946911B8
:105A8000BE01675E7F4FCE0101960E945C2142E01D
:105A900050E0BE016F5F7F4FCE0107960E94B82095
:105AA000CE0101960E946911CE0143960E945503D2
:105AB000811134C0CE010D960E94550381112EC074
:105AC000CE0107960E945503811128C08B899C89BD
:105AD00010E0009719F00E94B22D162F8D859E853B
